{
  "contracts/CryptoArenaExchange.sol": {
    "CryptoArenaExchange": {
      "abi": [
        {
          "inputs": [
            {
              "internalType": "address",
              "name": "initialOwner",
              "type": "address"
            }
          ],
          "stateMutability": "nonpayable",
          "type": "constructor"
        },
        {
          "inputs": [
            {
              "internalType": "address",
              "name": "owner",
              "type": "address"
            }
          ],
          "name": "OwnableInvalidOwner",
          "type": "error"
        },
        {
          "inputs": [
            {
              "internalType": "address",
              "name": "account",
              "type": "address"
            }
          ],
          "name": "OwnableUnauthorizedAccount",
          "type": "error"
        },
        {
          "anonymous": false,
          "inputs": [
            {
              "indexed": true,
              "internalType": "address",
              "name": "previousOwner",
              "type": "address"
            },
            {
              "indexed": true,
              "internalType": "address",
              "name": "newOwner",
              "type": "address"
            }
          ],
          "name": "OwnershipTransferred",
          "type": "event"
        },
        {
          "anonymous": false,
          "inputs": [
            {
              "indexed": true,
              "internalType": "address",
              "name": "user",
              "type": "address"
            },
            {
              "indexed": false,
              "internalType": "string",
              "name": "fromToken",
              "type": "string"
            },
            {
              "indexed": false,
              "internalType": "string",
              "name": "toToken",
              "type": "string"
            },
            {
              "indexed": false,
              "internalType": "uint256",
              "name": "amountIn",
              "type": "uint256"
            },
            {
              "indexed": false,
              "internalType": "uint256",
              "name": "amountOut",
              "type": "uint256"
            }
          ],
          "name": "Swapped",
          "type": "event"
        },
        {
          "inputs": [
            {
              "internalType": "address",
              "name": "token",
              "type": "address"
            },
            {
              "internalType": "uint256",
              "name": "amount",
              "type": "uint256"
            }
          ],
          "name": "emergencyWithdraw",
          "outputs": [],
          "stateMutability": "nonpayable",
          "type": "function"
        },
        {
          "inputs": [
            {
              "internalType": "string",
              "name": "",
              "type": "string"
            },
            {
              "internalType": "string",
              "name": "",
              "type": "string"
            }
          ],
          "name": "exchangeRates",
          "outputs": [
            {
              "internalType": "uint256",
              "name": "",
              "type": "uint256"
            }
          ],
          "stateMutability": "view",
          "type": "function"
        },
        {
          "inputs": [],
          "name": "owner",
          "outputs": [
            {
              "internalType": "address",
              "name": "",
              "type": "address"
            }
          ],
          "stateMutability": "view",
          "type": "function"
        },
        {
          "inputs": [
            {
              "internalType": "string",
              "name": "symbol",
              "type": "string"
            },
            {
              "internalType": "address",
              "name": "tokenAddress",
              "type": "address"
            }
          ],
          "name": "registerToken",
          "outputs": [],
          "stateMutability": "nonpayable",
          "type": "function"
        },
        {
          "inputs": [],
          "name": "renounceOwnership",
          "outputs": [],
          "stateMutability": "nonpayable",
          "type": "function"
        },
        {
          "inputs": [
            {
              "internalType": "string",
              "name": "fromToken",
              "type": "string"
            },
            {
              "internalType": "string",
              "name": "toToken",
              "type": "string"
            },
            {
              "internalType": "uint256",
              "name": "rate",
              "type": "uint256"
            }
          ],
          "name": "setRate",
          "outputs": [],
          "stateMutability": "nonpayable",
          "type": "function"
        },
        {
          "inputs": [
            {
              "internalType": "string",
              "name": "fromToken",
              "type": "string"
            },
            {
              "internalType": "string",
              "name": "toToken",
              "type": "string"
            },
            {
              "internalType": "uint256",
              "name": "amountIn",
              "type": "uint256"
            }
          ],
          "name": "swap",
          "outputs": [],
          "stateMutability": "nonpayable",
          "type": "function"
        },
        {
          "inputs": [
            {
              "internalType": "string",
              "name": "",
              "type": "string"
            }
          ],
          "name": "tokens",
          "outputs": [
            {
              "internalType": "address",
              "name": "",
              "type": "address"
            }
          ],
          "stateMutability": "view",
          "type": "function"
        },
        {
          "inputs": [
            {
              "internalType": "address",
              "name": "newOwner",
              "type": "address"
            }
          ],
          "name": "transferOwnership",
          "outputs": [],
          "stateMutability": "nonpayable",
          "type": "function"
        }
      ],
      "evm": {
        "bytecode": {
          "linkReferences": {},
          "object": "60806040523480156200001157600080fd5b50604051620015f6380380620015f68339818101604052810190620000379190620001f4565b80600073ffffffffffffffffffffffffffffffffffffffff168173ffffffffffffffffffffffffffffffffffffffff1603620000ad5760006040517f1e4fbdf7000000000000000000000000000000000000000000000000000000008152600401620000a4919062000237565b60405180910390fd5b620000be81620000c660201b60201c565b505062000254565b60008060009054906101000a900473ffffffffffffffffffffffffffffffffffffffff169050816000806101000a81548173ffffffffffffffffffffffffffffffffffffffff021916908373ffffffffffffffffffffffffffffffffffffffff1602179055508173ffffffffffffffffffffffffffffffffffffffff168173ffffffffffffffffffffffffffffffffffffffff167f8be0079c531659141344cd1fd0a4f28419497f9722a3daafe3b4186f6b6457e060405160405180910390a35050565b600080fd5b600073ffffffffffffffffffffffffffffffffffffffff82169050919050565b6000620001bc826200018f565b9050919050565b620001ce81620001af565b8114620001da57600080fd5b50565b600081519050620001ee81620001c3565b92915050565b6000602082840312156200020d576200020c6200018a565b5b60006200021d84828501620001dd565b91505092915050565b6200023181620001af565b82525050565b60006020820190506200024e600083018462000226565b92915050565b61139280620002646000396000f3fe608060405234801561001057600080fd5b50600436106100935760003560e01c806377e7fc461161006657806377e7fc461461011e5780638da5cb5b1461013a57806395ccea6714610158578063a451f60214610174578063f2fde38b1461019057610093565b806304c2320b1461009857806362860a2b146100c857806369f667ed146100f8578063715018a614610114575b600080fd5b6100b260048036038101906100ad9190610b88565b6101ac565b6040516100bf9190610c12565b60405180910390f35b6100e260048036038101906100dd9190610c2d565b6101f5565b6040516100ef9190610cbe565b60405180910390f35b610112600480360381019061010d9190610d05565b610246565b005b61011c6102af565b005b61013860048036038101906101339190610d8d565b6102c3565b005b61014261030f565b60405161014f9190610c12565b60405180910390f35b610172600480360381019061016d9190610e18565b610338565b005b61018e60048036038101906101899190610d8d565b6103c3565b005b6101aa60048036038101906101a59190610e58565b610855565b005b6001818051602081018201805184825260208301602085012081835280955050505050506000915054906101000a900473ffffffffffffffffffffffffffffffffffffffff1681565b60028280516020810182018051848252602083016020850120818352809550505050505081805160208101820180518482526020830160208501208183528095505050505050600091509150505481565b61024e6108db565b8060018360405161025f9190610ef6565b908152602001604051809103902060006101000a81548173ffffffffffffffffffffffffffffffffffffffff021916908373ffffffffffffffffffffffffffffffffffffffff1602179055505050565b6102b76108db565b6102c16000610962565b565b6102cb6108db565b806002846040516102dc9190610ef6565b9081526020016040518091039020836040516102f89190610ef6565b908152602001604051809103902081905550505050565b60008060009054906101000a900473ffffffffffffffffffffffffffffffffffffffff16905090565b6103406108db565b8173ffffffffffffffffffffffffffffffffffffffff1663a9059cbb33836040518363ffffffff1660e01b815260040161037b929190610f0d565b6020604051808303816000875af115801561039a573d6000803e3d6000fd5b505050506040513d601f19601f820116820180604052508101906103be9190610f6e565b505050565b600073ffffffffffffffffffffffffffffffffffffffff166001846040516103eb9190610ef6565b908152602001604051809103902060009054906101000a900473ffffffffffffffffffffffffffffffffffffffff1673ffffffffffffffffffffffffffffffffffffffff1603610470576040517f08c379a000000000000000000000000000000000000000000000000000000000815260040161046790610ff8565b60405180910390fd5b600073ffffffffffffffffffffffffffffffffffffffff166001836040516104989190610ef6565b908152602001604051809103902060009054906101000a900473ffffffffffffffffffffffffffffffffffffffff1673ffffffffffffffffffffffffffffffffffffffff160361051d576040517f08c379a000000000000000000000000000000000000000000000000000000000815260040161051490611064565b60405180910390fd5b600060028460405161052f9190610ef6565b90815260200160405180910390208360405161054b9190610ef6565b9081526020016040518091039020541161059a576040517f08c379a0000000000000000000000000000000000000000000000000000000008152600401610591906110d0565b60405180910390fd5b60006001846040516105ac9190610ef6565b908152602001604051809103902060009054906101000a900473ffffffffffffffffffffffffffffffffffffffff16905060006001846040516105ef9190610ef6565b908152602001604051809103902060009054906101000a900473ffffffffffffffffffffffffffffffffffffffff1690508173ffffffffffffffffffffffffffffffffffffffff166323b872dd3330866040518463ffffffff1660e01b815260040161065d939291906110f0565b6020604051808303816000875af115801561067c573d6000803e3d6000fd5b505050506040513d601f19601f820116820180604052508101906106a09190610f6e565b6106df576040517f08c379a00000000000000000000000000000000000000000000000000000000081526004016106d690611173565b60405180910390fd5b6000670de0b6b3a76400006002876040516106fa9190610ef6565b9081526020016040518091039020866040516107169190610ef6565b9081526020016040518091039020548561073091906111c2565b61073a9190611233565b90508173ffffffffffffffffffffffffffffffffffffffff1663a9059cbb33836040518363ffffffff1660e01b8152600401610777929190610f0d565b6020604051808303816000875af1158015610796573d6000803e3d6000fd5b505050506040513d601f19601f820116820180604052508101906107ba9190610f6e565b6107f9576040517f08c379a00000000000000000000000000000000000000000000000000000000081526004016107f0906112b0565b60405180910390fd5b3373ffffffffffffffffffffffffffffffffffffffff167f31e905862a866c66985eb1bac19ecf227feb490b2fca79b3ce683575ae584598878787856040516108459493929190611309565b60405180910390a2505050505050565b61085d6108db565b600073ffffffffffffffffffffffffffffffffffffffff168173ffffffffffffffffffffffffffffffffffffffff16036108cf5760006040517f1e4fbdf70000000000000000000000000000000000000000000000000000000081526004016108c69190610c12565b60405180910390fd5b6108d881610962565b50565b6108e3610a26565b73ffffffffffffffffffffffffffffffffffffffff1661090161030f565b73ffffffffffffffffffffffffffffffffffffffff161461096057610924610a26565b6040517f118cdaa70000000000000000000000000000000000000000000000000000000081526004016109579190610c12565b60405180910390fd5b565b60008060009054906101000a900473ffffffffffffffffffffffffffffffffffffffff169050816000806101000a81548173ffffffffffffffffffffffffffffffffffffffff021916908373ffffffffffffffffffffffffffffffffffffffff1602179055508173ffffffffffffffffffffffffffffffffffffffff168173ffffffffffffffffffffffffffffffffffffffff167f8be0079c531659141344cd1fd0a4f28419497f9722a3daafe3b4186f6b6457e060405160405180910390a35050565b600033905090565b6000604051905090565b600080fd5b600080fd5b600080fd5b600080fd5b6000601f19601f8301169050919050565b7f4e487b7100000000000000000000000000000000000000000000000000000000600052604160045260246000fd5b610a9582610a4c565b810181811067ffffffffffffffff82111715610ab457610ab3610a5d565b5b80604052505050565b6000610ac7610a2e565b9050610ad38282610a8c565b919050565b600067ffffffffffffffff821115610af357610af2610a5d565b5b610afc82610a4c565b9050602081019050919050565b82818337600083830152505050565b6000610b2b610b2684610ad8565b610abd565b905082815260208101848484011115610b4757610b46610a47565b5b610b52848285610b09565b509392505050565b600082601f830112610b6f57610b6e610a42565b5b8135610b7f848260208601610b18565b91505092915050565b600060208284031215610b9e57610b9d610a38565b5b600082013567ffffffffffffffff811115610bbc57610bbb610a3d565b5b610bc884828501610b5a565b91505092915050565b600073ffffffffffffffffffffffffffffffffffffffff82169050919050565b6000610bfc82610bd1565b9050919050565b610c0c81610bf1565b82525050565b6000602082019050610c276000830184610c03565b92915050565b60008060408385031215610c4457610c43610a38565b5b600083013567ffffffffffffffff811115610c6257610c61610a3d565b5b610c6e85828601610b5a565b925050602083013567ffffffffffffffff811115610c8f57610c8e610a3d565b5b610c9b85828601610b5a565b9150509250929050565b6000819050919050565b610cb881610ca5565b82525050565b6000602082019050610cd36000830184610caf565b92915050565b610ce281610bf1565b8114610ced57600080fd5b50565b600081359050610cff81610cd9565b92915050565b60008060408385031215610d1c57610d1b610a38565b5b600083013567ffffffffffffffff811115610d3a57610d39610a3d565b5b610d4685828601610b5a565b9250506020610d5785828601610cf0565b9150509250929050565b610d6a81610ca5565b8114610d7557600080fd5b50565b600081359050610d8781610d61565b92915050565b600080600060608486031215610da657610da5610a38565b5b600084013567ffffffffffffffff811115610dc457610dc3610a3d565b5b610dd086828701610b5a565b935050602084013567ffffffffffffffff811115610df157610df0610a3d565b5b610dfd86828701610b5a565b9250506040610e0e86828701610d78565b9150509250925092565b60008060408385031215610e2f57610e2e610a38565b5b6000610e3d85828601610cf0565b9250506020610e4e85828601610d78565b9150509250929050565b600060208284031215610e6e57610e6d610a38565b5b6000610e7c84828501610cf0565b91505092915050565b600081519050919050565b600081905092915050565b60005b83811015610eb9578082015181840152602081019050610e9e565b60008484015250505050565b6000610ed082610e85565b610eda8185610e90565b9350610eea818560208601610e9b565b80840191505092915050565b6000610f028284610ec5565b915081905092915050565b6000604082019050610f226000830185610c03565b610f2f6020830184610caf565b9392505050565b60008115159050919050565b610f4b81610f36565b8114610f5657600080fd5b50565b600081519050610f6881610f42565b92915050565b600060208284031215610f8457610f83610a38565b5b6000610f9284828501610f59565b91505092915050565b600082825260208201905092915050565b7f496e76616c69642066726f6d546f6b656e000000000000000000000000000000600082015250565b6000610fe2601183610f9b565b9150610fed82610fac565b602082019050919050565b6000602082019050818103600083015261101181610fd5565b9050919050565b7f496e76616c696420746f546f6b656e0000000000000000000000000000000000600082015250565b600061104e600f83610f9b565b915061105982611018565b602082019050919050565b6000602082019050818103600083015261107d81611041565b9050919050565b7f52617465206e6f74207365740000000000000000000000000000000000000000600082015250565b60006110ba600c83610f9b565b91506110c582611084565b602082019050919050565b600060208201905081810360008301526110e9816110ad565b9050919050565b60006060820190506111056000830186610c03565b6111126020830185610c03565b61111f6040830184610caf565b949350505050565b7f5472616e7366657246726f6d206661696c656400000000000000000000000000600082015250565b600061115d601383610f9b565b915061116882611127565b602082019050919050565b6000602082019050818103600083015261118c81611150565b9050919050565b7f4e487b7100000000000000000000000000000000000000000000000000000000600052601160045260246000fd5b60006111cd82610ca5565b91506111d883610ca5565b92508282026111e681610ca5565b915082820484148315176111fd576111fc611193565b5b5092915050565b7f4e487b7100000000000000000000000000000000000000000000000000000000600052601260045260246000fd5b600061123e82610ca5565b915061124983610ca5565b92508261125957611258611204565b5b828204905092915050565b7f5472616e7366657220746f2075736572206661696c6564000000000000000000600082015250565b600061129a601783610f9b565b91506112a582611264565b602082019050919050565b600060208201905081810360008301526112c98161128d565b9050919050565b60006112db82610e85565b6112e58185610f9b565b93506112f5818560208601610e9b565b6112fe81610a4c565b840191505092915050565b6000608082019050818103600083015261132381876112d0565b9050818103602083015261133781866112d0565b90506113466040830185610caf565b6113536060830184610caf565b9594505050505056fea264697066735822122032ba5b5d7df06f4e9e89fc94bd741d7517669675535652b2c6c9e1e2bb6cafcd64736f6c63430008140033",
          "opcodes": "PUSH1 0x80 PUSH1 0x40 MSTORE CALLVALUE DUP1 ISZERO PUSH3 0x11 JUMPI PUSH1 0x0 DUP1 REVERT JUMPDEST POP PUSH1 0x40 MLOAD PUSH3 0x15F6 CODESIZE SUB DUP1 PUSH3 0x15F6 DUP4 CODECOPY DUP2 DUP2 ADD PUSH1 0x40 MSTORE DUP2 ADD SWAP1 PUSH3 0x37 SWAP2 SWAP1 PUSH3 0x1F4 JUMP JUMPDEST DUP1 PUSH1 0x0 PUSH20 0xFFFFFFFFFFFFFFFFFFFFFFFFFFFFFFFFFFFFFFFF AND DUP2 PUSH20 0xFFFFFFFFFFFFFFFFFFFFFFFFFFFFFFFFFFFFFFFF AND SUB PUSH3 0xAD JUMPI PUSH1 0x0 PUSH1 0x40 MLOAD PUSH32 0x1E4FBDF700000000000000000000000000000000000000000000000000000000 DUP2 MSTORE PUSH1 0x4 ADD PUSH3 0xA4 SWAP2 SWAP1 PUSH3 0x237 JUMP JUMPDEST PUSH1 0x40 MLOAD DUP1 SWAP2 SUB SWAP1 REVERT JUMPDEST PUSH3 0xBE DUP2 PUSH3 0xC6 PUSH1 0x20 SHL PUSH1 0x20 SHR JUMP JUMPDEST POP POP PUSH3 0x254 JUMP JUMPDEST PUSH1 0x0 DUP1 PUSH1 0x0 SWAP1 SLOAD SWAP1 PUSH2 0x100 EXP SWAP1 DIV PUSH20 0xFFFFFFFFFFFFFFFFFFFFFFFFFFFFFFFFFFFFFFFF AND SWAP1 POP DUP2 PUSH1 0x0 DUP1 PUSH2 0x100 EXP DUP2 SLOAD DUP2 PUSH20 0xFFFFFFFFFFFFFFFFFFFFFFFFFFFFFFFFFFFFFFFF MUL NOT AND SWAP1 DUP4 PUSH20 0xFFFFFFFFFFFFFFFFFFFFFFFFFFFFFFFFFFFFFFFF AND MUL OR SWAP1 SSTORE POP DUP2 PUSH20 0xFFFFFFFFFFFFFFFFFFFFFFFFFFFFFFFFFFFFFFFF AND DUP2 PUSH20 0xFFFFFFFFFFFFFFFFFFFFFFFFFFFFFFFFFFFFFFFF AND PUSH32 0x8BE0079C531659141344CD1FD0A4F28419497F9722A3DAAFE3B4186F6B6457E0 PUSH1 0x40 MLOAD PUSH1 0x40 MLOAD DUP1 SWAP2 SUB SWAP1 LOG3 POP POP JUMP JUMPDEST PUSH1 0x0 DUP1 REVERT JUMPDEST PUSH1 0x0 PUSH20 0xFFFFFFFFFFFFFFFFFFFFFFFFFFFFFFFFFFFFFFFF DUP3 AND SWAP1 POP SWAP2 SWAP1 POP JUMP JUMPDEST PUSH1 0x0 PUSH3 0x1BC DUP3 PUSH3 0x18F JUMP JUMPDEST SWAP1 POP SWAP2 SWAP1 POP JUMP JUMPDEST PUSH3 0x1CE DUP2 PUSH3 0x1AF JUMP JUMPDEST DUP2 EQ PUSH3 0x1DA JUMPI PUSH1 0x0 DUP1 REVERT JUMPDEST POP JUMP JUMPDEST PUSH1 0x0 DUP2 MLOAD SWAP1 POP PUSH3 0x1EE DUP2 PUSH3 0x1C3 JUMP JUMPDEST SWAP3 SWAP2 POP POP JUMP JUMPDEST PUSH1 0x0 PUSH1 0x20 DUP3 DUP5 SUB SLT ISZERO PUSH3 0x20D JUMPI PUSH3 0x20C PUSH3 0x18A JUMP JUMPDEST JUMPDEST PUSH1 0x0 PUSH3 0x21D DUP5 DUP3 DUP6 ADD PUSH3 0x1DD JUMP JUMPDEST SWAP2 POP POP SWAP3 SWAP2 POP POP JUMP JUMPDEST PUSH3 0x231 DUP2 PUSH3 0x1AF JUMP JUMPDEST DUP3 MSTORE POP POP JUMP JUMPDEST PUSH1 0x0 PUSH1 0x20 DUP3 ADD SWAP1 POP PUSH3 0x24E PUSH1 0x0 DUP4 ADD DUP5 PUSH3 0x226 JUMP JUMPDEST SWAP3 SWAP2 POP POP JUMP JUMPDEST PUSH2 0x1392 DUP1 PUSH3 0x264 PUSH1 0x0 CODECOPY PUSH1 0x0 RETURN INVALID PUSH1 0x80 PUSH1 0x40 MSTORE CALLVALUE DUP1 ISZERO PUSH2 0x10 JUMPI PUSH1 0x0 DUP1 REVERT JUMPDEST POP PUSH1 0x4 CALLDATASIZE LT PUSH2 0x93 JUMPI PUSH1 0x0 CALLDATALOAD PUSH1 0xE0 SHR DUP1 PUSH4 0x77E7FC46 GT PUSH2 0x66 JUMPI DUP1 PUSH4 0x77E7FC46 EQ PUSH2 0x11E JUMPI DUP1 PUSH4 0x8DA5CB5B EQ PUSH2 0x13A JUMPI DUP1 PUSH4 0x95CCEA67 EQ PUSH2 0x158 JUMPI DUP1 PUSH4 0xA451F602 EQ PUSH2 0x174 JUMPI DUP1 PUSH4 0xF2FDE38B EQ PUSH2 0x190 JUMPI PUSH2 0x93 JUMP JUMPDEST DUP1 PUSH4 0x4C2320B EQ PUSH2 0x98 JUMPI DUP1 PUSH4 0x62860A2B EQ PUSH2 0xC8 JUMPI DUP1 PUSH4 0x69F667ED EQ PUSH2 0xF8 JUMPI DUP1 PUSH4 0x715018A6 EQ PUSH2 0x114 JUMPI JUMPDEST PUSH1 0x0 DUP1 REVERT JUMPDEST PUSH2 0xB2 PUSH1 0x4 DUP1 CALLDATASIZE SUB DUP2 ADD SWAP1 PUSH2 0xAD SWAP2 SWAP1 PUSH2 0xB88 JUMP JUMPDEST PUSH2 0x1AC JUMP JUMPDEST PUSH1 0x40 MLOAD PUSH2 0xBF SWAP2 SWAP1 PUSH2 0xC12 JUMP JUMPDEST PUSH1 0x40 MLOAD DUP1 SWAP2 SUB SWAP1 RETURN JUMPDEST PUSH2 0xE2 PUSH1 0x4 DUP1 CALLDATASIZE SUB DUP2 ADD SWAP1 PUSH2 0xDD SWAP2 SWAP1 PUSH2 0xC2D JUMP JUMPDEST PUSH2 0x1F5 JUMP JUMPDEST PUSH1 0x40 MLOAD PUSH2 0xEF SWAP2 SWAP1 PUSH2 0xCBE JUMP JUMPDEST PUSH1 0x40 MLOAD DUP1 SWAP2 SUB SWAP1 RETURN JUMPDEST PUSH2 0x112 PUSH1 0x4 DUP1 CALLDATASIZE SUB DUP2 ADD SWAP1 PUSH2 0x10D SWAP2 SWAP1 PUSH2 0xD05 JUMP JUMPDEST PUSH2 0x246 JUMP JUMPDEST STOP JUMPDEST PUSH2 0x11C PUSH2 0x2AF JUMP JUMPDEST STOP JUMPDEST PUSH2 0x138 PUSH1 0x4 DUP1 CALLDATASIZE SUB DUP2 ADD SWAP1 PUSH2 0x133 SWAP2 SWAP1 PUSH2 0xD8D JUMP JUMPDEST PUSH2 0x2C3 JUMP JUMPDEST STOP JUMPDEST PUSH2 0x142 PUSH2 0x30F JUMP JUMPDEST PUSH1 0x40 MLOAD PUSH2 0x14F SWAP2 SWAP1 PUSH2 0xC12 JUMP JUMPDEST PUSH1 0x40 MLOAD DUP1 SWAP2 SUB SWAP1 RETURN JUMPDEST PUSH2 0x172 PUSH1 0x4 DUP1 CALLDATASIZE SUB DUP2 ADD SWAP1 PUSH2 0x16D SWAP2 SWAP1 PUSH2 0xE18 JUMP JUMPDEST PUSH2 0x338 JUMP JUMPDEST STOP JUMPDEST PUSH2 0x18E PUSH1 0x4 DUP1 CALLDATASIZE SUB DUP2 ADD SWAP1 PUSH2 0x189 SWAP2 SWAP1 PUSH2 0xD8D JUMP JUMPDEST PUSH2 0x3C3 JUMP JUMPDEST STOP JUMPDEST PUSH2 0x1AA PUSH1 0x4 DUP1 CALLDATASIZE SUB DUP2 ADD SWAP1 PUSH2 0x1A5 SWAP2 SWAP1 PUSH2 0xE58 JUMP JUMPDEST PUSH2 0x855 JUMP JUMPDEST STOP JUMPDEST PUSH1 0x1 DUP2 DUP1 MLOAD PUSH1 0x20 DUP2 ADD DUP3 ADD DUP1 MLOAD DUP5 DUP3 MSTORE PUSH1 0x20 DUP4 ADD PUSH1 0x20 DUP6 ADD KECCAK256 DUP2 DUP4 MSTORE DUP1 SWAP6 POP POP POP POP POP POP PUSH1 0x0 SWAP2 POP SLOAD SWAP1 PUSH2 0x100 EXP SWAP1 DIV PUSH20 0xFFFFFFFFFFFFFFFFFFFFFFFFFFFFFFFFFFFFFFFF AND DUP2 JUMP JUMPDEST PUSH1 0x2 DUP3 DUP1 MLOAD PUSH1 0x20 DUP2 ADD DUP3 ADD DUP1 MLOAD DUP5 DUP3 MSTORE PUSH1 0x20 DUP4 ADD PUSH1 0x20 DUP6 ADD KECCAK256 DUP2 DUP4 MSTORE DUP1 SWAP6 POP POP POP POP POP POP DUP2 DUP1 MLOAD PUSH1 0x20 DUP2 ADD DUP3 ADD DUP1 MLOAD DUP5 DUP3 MSTORE PUSH1 0x20 DUP4 ADD PUSH1 0x20 DUP6 ADD KECCAK256 DUP2 DUP4 MSTORE DUP1 SWAP6 POP POP POP POP POP POP PUSH1 0x0 SWAP2 POP SWAP2 POP POP SLOAD DUP2 JUMP JUMPDEST PUSH2 0x24E PUSH2 0x8DB JUMP JUMPDEST DUP1 PUSH1 0x1 DUP4 PUSH1 0x40 MLOAD PUSH2 0x25F SWAP2 SWAP1 PUSH2 0xEF6 JUMP JUMPDEST SWAP1 DUP2 MSTORE PUSH1 0x20 ADD PUSH1 0x40 MLOAD DUP1 SWAP2 SUB SWAP1 KECCAK256 PUSH1 0x0 PUSH2 0x100 EXP DUP2 SLOAD DUP2 PUSH20 0xFFFFFFFFFFFFFFFFFFFFFFFFFFFFFFFFFFFFFFFF MUL NOT AND SWAP1 DUP4 PUSH20 0xFFFFFFFFFFFFFFFFFFFFFFFFFFFFFFFFFFFFFFFF AND MUL OR SWAP1 SSTORE POP POP POP JUMP JUMPDEST PUSH2 0x2B7 PUSH2 0x8DB JUMP JUMPDEST PUSH2 0x2C1 PUSH1 0x0 PUSH2 0x962 JUMP JUMPDEST JUMP JUMPDEST PUSH2 0x2CB PUSH2 0x8DB JUMP JUMPDEST DUP1 PUSH1 0x2 DUP5 PUSH1 0x40 MLOAD PUSH2 0x2DC SWAP2 SWAP1 PUSH2 0xEF6 JUMP JUMPDEST SWAP1 DUP2 MSTORE PUSH1 0x20 ADD PUSH1 0x40 MLOAD DUP1 SWAP2 SUB SWAP1 KECCAK256 DUP4 PUSH1 0x40 MLOAD PUSH2 0x2F8 SWAP2 SWAP1 PUSH2 0xEF6 JUMP JUMPDEST SWAP1 DUP2 MSTORE PUSH1 0x20 ADD PUSH1 0x40 MLOAD DUP1 SWAP2 SUB SWAP1 KECCAK256 DUP2 SWAP1 SSTORE POP POP POP POP JUMP JUMPDEST PUSH1 0x0 DUP1 PUSH1 0x0 SWAP1 SLOAD SWAP1 PUSH2 0x100 EXP SWAP1 DIV PUSH20 0xFFFFFFFFFFFFFFFFFFFFFFFFFFFFFFFFFFFFFFFF AND SWAP1 POP SWAP1 JUMP JUMPDEST PUSH2 0x340 PUSH2 0x8DB JUMP JUMPDEST DUP2 PUSH20 0xFFFFFFFFFFFFFFFFFFFFFFFFFFFFFFFFFFFFFFFF AND PUSH4 0xA9059CBB CALLER DUP4 PUSH1 0x40 MLOAD DUP4 PUSH4 0xFFFFFFFF AND PUSH1 0xE0 SHL DUP2 MSTORE PUSH1 0x4 ADD PUSH2 0x37B SWAP3 SWAP2 SWAP1 PUSH2 0xF0D JUMP JUMPDEST PUSH1 0x20 PUSH1 0x40 MLOAD DUP1 DUP4 SUB DUP2 PUSH1 0x0 DUP8 GAS CALL ISZERO DUP1 ISZERO PUSH2 0x39A JUMPI RETURNDATASIZE PUSH1 0x0 DUP1 RETURNDATACOPY RETURNDATASIZE PUSH1 0x0 REVERT JUMPDEST POP POP POP POP PUSH1 0x40 MLOAD RETURNDATASIZE PUSH1 0x1F NOT PUSH1 0x1F DUP3 ADD AND DUP3 ADD DUP1 PUSH1 0x40 MSTORE POP DUP2 ADD SWAP1 PUSH2 0x3BE SWAP2 SWAP1 PUSH2 0xF6E JUMP JUMPDEST POP POP POP JUMP JUMPDEST PUSH1 0x0 PUSH20 0xFFFFFFFFFFFFFFFFFFFFFFFFFFFFFFFFFFFFFFFF AND PUSH1 0x1 DUP5 PUSH1 0x40 MLOAD PUSH2 0x3EB SWAP2 SWAP1 PUSH2 0xEF6 JUMP JUMPDEST SWAP1 DUP2 MSTORE PUSH1 0x20 ADD PUSH1 0x40 MLOAD DUP1 SWAP2 SUB SWAP1 KECCAK256 PUSH1 0x0 SWAP1 SLOAD SWAP1 PUSH2 0x100 EXP SWAP1 DIV PUSH20 0xFFFFFFFFFFFFFFFFFFFFFFFFFFFFFFFFFFFFFFFF AND PUSH20 0xFFFFFFFFFFFFFFFFFFFFFFFFFFFFFFFFFFFFFFFF AND SUB PUSH2 0x470 JUMPI PUSH1 0x40 MLOAD PUSH32 0x8C379A000000000000000000000000000000000000000000000000000000000 DUP2 MSTORE PUSH1 0x4 ADD PUSH2 0x467 SWAP1 PUSH2 0xFF8 JUMP JUMPDEST PUSH1 0x40 MLOAD DUP1 SWAP2 SUB SWAP1 REVERT JUMPDEST PUSH1 0x0 PUSH20 0xFFFFFFFFFFFFFFFFFFFFFFFFFFFFFFFFFFFFFFFF AND PUSH1 0x1 DUP4 PUSH1 0x40 MLOAD PUSH2 0x498 SWAP2 SWAP1 PUSH2 0xEF6 JUMP JUMPDEST SWAP1 DUP2 MSTORE PUSH1 0x20 ADD PUSH1 0x40 MLOAD DUP1 SWAP2 SUB SWAP1 KECCAK256 PUSH1 0x0 SWAP1 SLOAD SWAP1 PUSH2 0x100 EXP SWAP1 DIV PUSH20 0xFFFFFFFFFFFFFFFFFFFFFFFFFFFFFFFFFFFFFFFF AND PUSH20 0xFFFFFFFFFFFFFFFFFFFFFFFFFFFFFFFFFFFFFFFF AND SUB PUSH2 0x51D JUMPI PUSH1 0x40 MLOAD PUSH32 0x8C379A000000000000000000000000000000000000000000000000000000000 DUP2 MSTORE PUSH1 0x4 ADD PUSH2 0x514 SWAP1 PUSH2 0x1064 JUMP JUMPDEST PUSH1 0x40 MLOAD DUP1 SWAP2 SUB SWAP1 REVERT JUMPDEST PUSH1 0x0 PUSH1 0x2 DUP5 PUSH1 0x40 MLOAD PUSH2 0x52F SWAP2 SWAP1 PUSH2 0xEF6 JUMP JUMPDEST SWAP1 DUP2 MSTORE PUSH1 0x20 ADD PUSH1 0x40 MLOAD DUP1 SWAP2 SUB SWAP1 KECCAK256 DUP4 PUSH1 0x40 MLOAD PUSH2 0x54B SWAP2 SWAP1 PUSH2 0xEF6 JUMP JUMPDEST SWAP1 DUP2 MSTORE PUSH1 0x20 ADD PUSH1 0x40 MLOAD DUP1 SWAP2 SUB SWAP1 KECCAK256 SLOAD GT PUSH2 0x59A JUMPI PUSH1 0x40 MLOAD PUSH32 0x8C379A000000000000000000000000000000000000000000000000000000000 DUP2 MSTORE PUSH1 0x4 ADD PUSH2 0x591 SWAP1 PUSH2 0x10D0 JUMP JUMPDEST PUSH1 0x40 MLOAD DUP1 SWAP2 SUB SWAP1 REVERT JUMPDEST PUSH1 0x0 PUSH1 0x1 DUP5 PUSH1 0x40 MLOAD PUSH2 0x5AC SWAP2 SWAP1 PUSH2 0xEF6 JUMP JUMPDEST SWAP1 DUP2 MSTORE PUSH1 0x20 ADD PUSH1 0x40 MLOAD DUP1 SWAP2 SUB SWAP1 KECCAK256 PUSH1 0x0 SWAP1 SLOAD SWAP1 PUSH2 0x100 EXP SWAP1 DIV PUSH20 0xFFFFFFFFFFFFFFFFFFFFFFFFFFFFFFFFFFFFFFFF AND SWAP1 POP PUSH1 0x0 PUSH1 0x1 DUP5 PUSH1 0x40 MLOAD PUSH2 0x5EF SWAP2 SWAP1 PUSH2 0xEF6 JUMP JUMPDEST SWAP1 DUP2 MSTORE PUSH1 0x20 ADD PUSH1 0x40 MLOAD DUP1 SWAP2 SUB SWAP1 KECCAK256 PUSH1 0x0 SWAP1 SLOAD SWAP1 PUSH2 0x100 EXP SWAP1 DIV PUSH20 0xFFFFFFFFFFFFFFFFFFFFFFFFFFFFFFFFFFFFFFFF AND SWAP1 POP DUP2 PUSH20 0xFFFFFFFFFFFFFFFFFFFFFFFFFFFFFFFFFFFFFFFF AND PUSH4 0x23B872DD CALLER ADDRESS DUP7 PUSH1 0x40 MLOAD DUP5 PUSH4 0xFFFFFFFF AND PUSH1 0xE0 SHL DUP2 MSTORE PUSH1 0x4 ADD PUSH2 0x65D SWAP4 SWAP3 SWAP2 SWAP1 PUSH2 0x10F0 JUMP JUMPDEST PUSH1 0x20 PUSH1 0x40 MLOAD DUP1 DUP4 SUB DUP2 PUSH1 0x0 DUP8 GAS CALL ISZERO DUP1 ISZERO PUSH2 0x67C JUMPI RETURNDATASIZE PUSH1 0x0 DUP1 RETURNDATACOPY RETURNDATASIZE PUSH1 0x0 REVERT JUMPDEST POP POP POP POP PUSH1 0x40 MLOAD RETURNDATASIZE PUSH1 0x1F NOT PUSH1 0x1F DUP3 ADD AND DUP3 ADD DUP1 PUSH1 0x40 MSTORE POP DUP2 ADD SWAP1 PUSH2 0x6A0 SWAP2 SWAP1 PUSH2 0xF6E JUMP JUMPDEST PUSH2 0x6DF JUMPI PUSH1 0x40 MLOAD PUSH32 0x8C379A000000000000000000000000000000000000000000000000000000000 DUP2 MSTORE PUSH1 0x4 ADD PUSH2 0x6D6 SWAP1 PUSH2 0x1173 JUMP JUMPDEST PUSH1 0x40 MLOAD DUP1 SWAP2 SUB SWAP1 REVERT JUMPDEST PUSH1 0x0 PUSH8 0xDE0B6B3A7640000 PUSH1 0x2 DUP8 PUSH1 0x40 MLOAD PUSH2 0x6FA SWAP2 SWAP1 PUSH2 0xEF6 JUMP JUMPDEST SWAP1 DUP2 MSTORE PUSH1 0x20 ADD PUSH1 0x40 MLOAD DUP1 SWAP2 SUB SWAP1 KECCAK256 DUP7 PUSH1 0x40 MLOAD PUSH2 0x716 SWAP2 SWAP1 PUSH2 0xEF6 JUMP JUMPDEST SWAP1 DUP2 MSTORE PUSH1 0x20 ADD PUSH1 0x40 MLOAD DUP1 SWAP2 SUB SWAP1 KECCAK256 SLOAD DUP6 PUSH2 0x730 SWAP2 SWAP1 PUSH2 0x11C2 JUMP JUMPDEST PUSH2 0x73A SWAP2 SWAP1 PUSH2 0x1233 JUMP JUMPDEST SWAP1 POP DUP2 PUSH20 0xFFFFFFFFFFFFFFFFFFFFFFFFFFFFFFFFFFFFFFFF AND PUSH4 0xA9059CBB CALLER DUP4 PUSH1 0x40 MLOAD DUP4 PUSH4 0xFFFFFFFF AND PUSH1 0xE0 SHL DUP2 MSTORE PUSH1 0x4 ADD PUSH2 0x777 SWAP3 SWAP2 SWAP1 PUSH2 0xF0D JUMP JUMPDEST PUSH1 0x20 PUSH1 0x40 MLOAD DUP1 DUP4 SUB DUP2 PUSH1 0x0 DUP8 GAS CALL ISZERO DUP1 ISZERO PUSH2 0x796 JUMPI RETURNDATASIZE PUSH1 0x0 DUP1 RETURNDATACOPY RETURNDATASIZE PUSH1 0x0 REVERT JUMPDEST POP POP POP POP PUSH1 0x40 MLOAD RETURNDATASIZE PUSH1 0x1F NOT PUSH1 0x1F DUP3 ADD AND DUP3 ADD DUP1 PUSH1 0x40 MSTORE POP DUP2 ADD SWAP1 PUSH2 0x7BA SWAP2 SWAP1 PUSH2 0xF6E JUMP JUMPDEST PUSH2 0x7F9 JUMPI PUSH1 0x40 MLOAD PUSH32 0x8C379A000000000000000000000000000000000000000000000000000000000 DUP2 MSTORE PUSH1 0x4 ADD PUSH2 0x7F0 SWAP1 PUSH2 0x12B0 JUMP JUMPDEST PUSH1 0x40 MLOAD DUP1 SWAP2 SUB SWAP1 REVERT JUMPDEST CALLER PUSH20 0xFFFFFFFFFFFFFFFFFFFFFFFFFFFFFFFFFFFFFFFF AND PUSH32 0x31E905862A866C66985EB1BAC19ECF227FEB490B2FCA79B3CE683575AE584598 DUP8 DUP8 DUP8 DUP6 PUSH1 0x40 MLOAD PUSH2 0x845 SWAP5 SWAP4 SWAP3 SWAP2 SWAP1 PUSH2 0x1309 JUMP JUMPDEST PUSH1 0x40 MLOAD DUP1 SWAP2 SUB SWAP1 LOG2 POP POP POP POP POP POP JUMP JUMPDEST PUSH2 0x85D PUSH2 0x8DB JUMP JUMPDEST PUSH1 0x0 PUSH20 0xFFFFFFFFFFFFFFFFFFFFFFFFFFFFFFFFFFFFFFFF AND DUP2 PUSH20 0xFFFFFFFFFFFFFFFFFFFFFFFFFFFFFFFFFFFFFFFF AND SUB PUSH2 0x8CF JUMPI PUSH1 0x0 PUSH1 0x40 MLOAD PUSH32 0x1E4FBDF700000000000000000000000000000000000000000000000000000000 DUP2 MSTORE PUSH1 0x4 ADD PUSH2 0x8C6 SWAP2 SWAP1 PUSH2 0xC12 JUMP JUMPDEST PUSH1 0x40 MLOAD DUP1 SWAP2 SUB SWAP1 REVERT JUMPDEST PUSH2 0x8D8 DUP2 PUSH2 0x962 JUMP JUMPDEST POP JUMP JUMPDEST PUSH2 0x8E3 PUSH2 0xA26 JUMP JUMPDEST PUSH20 0xFFFFFFFFFFFFFFFFFFFFFFFFFFFFFFFFFFFFFFFF AND PUSH2 0x901 PUSH2 0x30F JUMP JUMPDEST PUSH20 0xFFFFFFFFFFFFFFFFFFFFFFFFFFFFFFFFFFFFFFFF AND EQ PUSH2 0x960 JUMPI PUSH2 0x924 PUSH2 0xA26 JUMP JUMPDEST PUSH1 0x40 MLOAD PUSH32 0x118CDAA700000000000000000000000000000000000000000000000000000000 DUP2 MSTORE PUSH1 0x4 ADD PUSH2 0x957 SWAP2 SWAP1 PUSH2 0xC12 JUMP JUMPDEST PUSH1 0x40 MLOAD DUP1 SWAP2 SUB SWAP1 REVERT JUMPDEST JUMP JUMPDEST PUSH1 0x0 DUP1 PUSH1 0x0 SWAP1 SLOAD SWAP1 PUSH2 0x100 EXP SWAP1 DIV PUSH20 0xFFFFFFFFFFFFFFFFFFFFFFFFFFFFFFFFFFFFFFFF AND SWAP1 POP DUP2 PUSH1 0x0 DUP1 PUSH2 0x100 EXP DUP2 SLOAD DUP2 PUSH20 0xFFFFFFFFFFFFFFFFFFFFFFFFFFFFFFFFFFFFFFFF MUL NOT AND SWAP1 DUP4 PUSH20 0xFFFFFFFFFFFFFFFFFFFFFFFFFFFFFFFFFFFFFFFF AND MUL OR SWAP1 SSTORE POP DUP2 PUSH20 0xFFFFFFFFFFFFFFFFFFFFFFFFFFFFFFFFFFFFFFFF AND DUP2 PUSH20 0xFFFFFFFFFFFFFFFFFFFFFFFFFFFFFFFFFFFFFFFF AND PUSH32 0x8BE0079C531659141344CD1FD0A4F28419497F9722A3DAAFE3B4186F6B6457E0 PUSH1 0x40 MLOAD PUSH1 0x40 MLOAD DUP1 SWAP2 SUB SWAP1 LOG3 POP POP JUMP JUMPDEST PUSH1 0x0 CALLER SWAP1 POP SWAP1 JUMP JUMPDEST PUSH1 0x0 PUSH1 0x40 MLOAD SWAP1 POP SWAP1 JUMP JUMPDEST PUSH1 0x0 DUP1 REVERT JUMPDEST PUSH1 0x0 DUP1 REVERT JUMPDEST PUSH1 0x0 DUP1 REVERT JUMPDEST PUSH1 0x0 DUP1 REVERT JUMPDEST PUSH1 0x0 PUSH1 0x1F NOT PUSH1 0x1F DUP4 ADD AND SWAP1 POP SWAP2 SWAP1 POP JUMP JUMPDEST PUSH32 0x4E487B7100000000000000000000000000000000000000000000000000000000 PUSH1 0x0 MSTORE PUSH1 0x41 PUSH1 0x4 MSTORE PUSH1 0x24 PUSH1 0x0 REVERT JUMPDEST PUSH2 0xA95 DUP3 PUSH2 0xA4C JUMP JUMPDEST DUP2 ADD DUP2 DUP2 LT PUSH8 0xFFFFFFFFFFFFFFFF DUP3 GT OR ISZERO PUSH2 0xAB4 JUMPI PUSH2 0xAB3 PUSH2 0xA5D JUMP JUMPDEST JUMPDEST DUP1 PUSH1 0x40 MSTORE POP POP POP JUMP JUMPDEST PUSH1 0x0 PUSH2 0xAC7 PUSH2 0xA2E JUMP JUMPDEST SWAP1 POP PUSH2 0xAD3 DUP3 DUP3 PUSH2 0xA8C JUMP JUMPDEST SWAP2 SWAP1 POP JUMP JUMPDEST PUSH1 0x0 PUSH8 0xFFFFFFFFFFFFFFFF DUP3 GT ISZERO PUSH2 0xAF3 JUMPI PUSH2 0xAF2 PUSH2 0xA5D JUMP JUMPDEST JUMPDEST PUSH2 0xAFC DUP3 PUSH2 0xA4C JUMP JUMPDEST SWAP1 POP PUSH1 0x20 DUP2 ADD SWAP1 POP SWAP2 SWAP1 POP JUMP JUMPDEST DUP3 DUP2 DUP4 CALLDATACOPY PUSH1 0x0 DUP4 DUP4 ADD MSTORE POP POP POP JUMP JUMPDEST PUSH1 0x0 PUSH2 0xB2B PUSH2 0xB26 DUP5 PUSH2 0xAD8 JUMP JUMPDEST PUSH2 0xABD JUMP JUMPDEST SWAP1 POP DUP3 DUP2 MSTORE PUSH1 0x20 DUP2 ADD DUP5 DUP5 DUP5 ADD GT ISZERO PUSH2 0xB47 JUMPI PUSH2 0xB46 PUSH2 0xA47 JUMP JUMPDEST JUMPDEST PUSH2 0xB52 DUP5 DUP3 DUP6 PUSH2 0xB09 JUMP JUMPDEST POP SWAP4 SWAP3 POP POP POP JUMP JUMPDEST PUSH1 0x0 DUP3 PUSH1 0x1F DUP4 ADD SLT PUSH2 0xB6F JUMPI PUSH2 0xB6E PUSH2 0xA42 JUMP JUMPDEST JUMPDEST DUP2 CALLDATALOAD PUSH2 0xB7F DUP5 DUP3 PUSH1 0x20 DUP7 ADD PUSH2 0xB18 JUMP JUMPDEST SWAP2 POP POP SWAP3 SWAP2 POP POP JUMP JUMPDEST PUSH1 0x0 PUSH1 0x20 DUP3 DUP5 SUB SLT ISZERO PUSH2 0xB9E JUMPI PUSH2 0xB9D PUSH2 0xA38 JUMP JUMPDEST JUMPDEST PUSH1 0x0 DUP3 ADD CALLDATALOAD PUSH8 0xFFFFFFFFFFFFFFFF DUP2 GT ISZERO PUSH2 0xBBC JUMPI PUSH2 0xBBB PUSH2 0xA3D JUMP JUMPDEST JUMPDEST PUSH2 0xBC8 DUP5 DUP3 DUP6 ADD PUSH2 0xB5A JUMP JUMPDEST SWAP2 POP POP SWAP3 SWAP2 POP POP JUMP JUMPDEST PUSH1 0x0 PUSH20 0xFFFFFFFFFFFFFFFFFFFFFFFFFFFFFFFFFFFFFFFF DUP3 AND SWAP1 POP SWAP2 SWAP1 POP JUMP JUMPDEST PUSH1 0x0 PUSH2 0xBFC DUP3 PUSH2 0xBD1 JUMP JUMPDEST SWAP1 POP SWAP2 SWAP1 POP JUMP JUMPDEST PUSH2 0xC0C DUP2 PUSH2 0xBF1 JUMP JUMPDEST DUP3 MSTORE POP POP JUMP JUMPDEST PUSH1 0x0 PUSH1 0x20 DUP3 ADD SWAP1 POP PUSH2 0xC27 PUSH1 0x0 DUP4 ADD DUP5 PUSH2 0xC03 JUMP JUMPDEST SWAP3 SWAP2 POP POP JUMP JUMPDEST PUSH1 0x0 DUP1 PUSH1 0x40 DUP4 DUP6 SUB SLT ISZERO PUSH2 0xC44 JUMPI PUSH2 0xC43 PUSH2 0xA38 JUMP JUMPDEST JUMPDEST PUSH1 0x0 DUP4 ADD CALLDATALOAD PUSH8 0xFFFFFFFFFFFFFFFF DUP2 GT ISZERO PUSH2 0xC62 JUMPI PUSH2 0xC61 PUSH2 0xA3D JUMP JUMPDEST JUMPDEST PUSH2 0xC6E DUP6 DUP3 DUP7 ADD PUSH2 0xB5A JUMP JUMPDEST SWAP3 POP POP PUSH1 0x20 DUP4 ADD CALLDATALOAD PUSH8 0xFFFFFFFFFFFFFFFF DUP2 GT ISZERO PUSH2 0xC8F JUMPI PUSH2 0xC8E PUSH2 0xA3D JUMP JUMPDEST JUMPDEST PUSH2 0xC9B DUP6 DUP3 DUP7 ADD PUSH2 0xB5A JUMP JUMPDEST SWAP2 POP POP SWAP3 POP SWAP3 SWAP1 POP JUMP JUMPDEST PUSH1 0x0 DUP2 SWAP1 POP SWAP2 SWAP1 POP JUMP JUMPDEST PUSH2 0xCB8 DUP2 PUSH2 0xCA5 JUMP JUMPDEST DUP3 MSTORE POP POP JUMP JUMPDEST PUSH1 0x0 PUSH1 0x20 DUP3 ADD SWAP1 POP PUSH2 0xCD3 PUSH1 0x0 DUP4 ADD DUP5 PUSH2 0xCAF JUMP JUMPDEST SWAP3 SWAP2 POP POP JUMP JUMPDEST PUSH2 0xCE2 DUP2 PUSH2 0xBF1 JUMP JUMPDEST DUP2 EQ PUSH2 0xCED JUMPI PUSH1 0x0 DUP1 REVERT JUMPDEST POP JUMP JUMPDEST PUSH1 0x0 DUP2 CALLDATALOAD SWAP1 POP PUSH2 0xCFF DUP2 PUSH2 0xCD9 JUMP JUMPDEST SWAP3 SWAP2 POP POP JUMP JUMPDEST PUSH1 0x0 DUP1 PUSH1 0x40 DUP4 DUP6 SUB SLT ISZERO PUSH2 0xD1C JUMPI PUSH2 0xD1B PUSH2 0xA38 JUMP JUMPDEST JUMPDEST PUSH1 0x0 DUP4 ADD CALLDATALOAD PUSH8 0xFFFFFFFFFFFFFFFF DUP2 GT ISZERO PUSH2 0xD3A JUMPI PUSH2 0xD39 PUSH2 0xA3D JUMP JUMPDEST JUMPDEST PUSH2 0xD46 DUP6 DUP3 DUP7 ADD PUSH2 0xB5A JUMP JUMPDEST SWAP3 POP POP PUSH1 0x20 PUSH2 0xD57 DUP6 DUP3 DUP7 ADD PUSH2 0xCF0 JUMP JUMPDEST SWAP2 POP POP SWAP3 POP SWAP3 SWAP1 POP JUMP JUMPDEST PUSH2 0xD6A DUP2 PUSH2 0xCA5 JUMP JUMPDEST DUP2 EQ PUSH2 0xD75 JUMPI PUSH1 0x0 DUP1 REVERT JUMPDEST POP JUMP JUMPDEST PUSH1 0x0 DUP2 CALLDATALOAD SWAP1 POP PUSH2 0xD87 DUP2 PUSH2 0xD61 JUMP JUMPDEST SWAP3 SWAP2 POP POP JUMP JUMPDEST PUSH1 0x0 DUP1 PUSH1 0x0 PUSH1 0x60 DUP5 DUP7 SUB SLT ISZERO PUSH2 0xDA6 JUMPI PUSH2 0xDA5 PUSH2 0xA38 JUMP JUMPDEST JUMPDEST PUSH1 0x0 DUP5 ADD CALLDATALOAD PUSH8 0xFFFFFFFFFFFFFFFF DUP2 GT ISZERO PUSH2 0xDC4 JUMPI PUSH2 0xDC3 PUSH2 0xA3D JUMP JUMPDEST JUMPDEST PUSH2 0xDD0 DUP7 DUP3 DUP8 ADD PUSH2 0xB5A JUMP JUMPDEST SWAP4 POP POP PUSH1 0x20 DUP5 ADD CALLDATALOAD PUSH8 0xFFFFFFFFFFFFFFFF DUP2 GT ISZERO PUSH2 0xDF1 JUMPI PUSH2 0xDF0 PUSH2 0xA3D JUMP JUMPDEST JUMPDEST PUSH2 0xDFD DUP7 DUP3 DUP8 ADD PUSH2 0xB5A JUMP JUMPDEST SWAP3 POP POP PUSH1 0x40 PUSH2 0xE0E DUP7 DUP3 DUP8 ADD PUSH2 0xD78 JUMP JUMPDEST SWAP2 POP POP SWAP3 POP SWAP3 POP SWAP3 JUMP JUMPDEST PUSH1 0x0 DUP1 PUSH1 0x40 DUP4 DUP6 SUB SLT ISZERO PUSH2 0xE2F JUMPI PUSH2 0xE2E PUSH2 0xA38 JUMP JUMPDEST JUMPDEST PUSH1 0x0 PUSH2 0xE3D DUP6 DUP3 DUP7 ADD PUSH2 0xCF0 JUMP JUMPDEST SWAP3 POP POP PUSH1 0x20 PUSH2 0xE4E DUP6 DUP3 DUP7 ADD PUSH2 0xD78 JUMP JUMPDEST SWAP2 POP POP SWAP3 POP SWAP3 SWAP1 POP JUMP JUMPDEST PUSH1 0x0 PUSH1 0x20 DUP3 DUP5 SUB SLT ISZERO PUSH2 0xE6E JUMPI PUSH2 0xE6D PUSH2 0xA38 JUMP JUMPDEST JUMPDEST PUSH1 0x0 PUSH2 0xE7C DUP5 DUP3 DUP6 ADD PUSH2 0xCF0 JUMP JUMPDEST SWAP2 POP POP SWAP3 SWAP2 POP POP JUMP JUMPDEST PUSH1 0x0 DUP2 MLOAD SWAP1 POP SWAP2 SWAP1 POP JUMP JUMPDEST PUSH1 0x0 DUP2 SWAP1 POP SWAP3 SWAP2 POP POP JUMP JUMPDEST PUSH1 0x0 JUMPDEST DUP4 DUP2 LT ISZERO PUSH2 0xEB9 JUMPI DUP1 DUP3 ADD MLOAD DUP2 DUP5 ADD MSTORE PUSH1 0x20 DUP2 ADD SWAP1 POP PUSH2 0xE9E JUMP JUMPDEST PUSH1 0x0 DUP5 DUP5 ADD MSTORE POP POP POP POP JUMP JUMPDEST PUSH1 0x0 PUSH2 0xED0 DUP3 PUSH2 0xE85 JUMP JUMPDEST PUSH2 0xEDA DUP2 DUP6 PUSH2 0xE90 JUMP JUMPDEST SWAP4 POP PUSH2 0xEEA DUP2 DUP6 PUSH1 0x20 DUP7 ADD PUSH2 0xE9B JUMP JUMPDEST DUP1 DUP5 ADD SWAP2 POP POP SWAP3 SWAP2 POP POP JUMP JUMPDEST PUSH1 0x0 PUSH2 0xF02 DUP3 DUP5 PUSH2 0xEC5 JUMP JUMPDEST SWAP2 POP DUP2 SWAP1 POP SWAP3 SWAP2 POP POP JUMP JUMPDEST PUSH1 0x0 PUSH1 0x40 DUP3 ADD SWAP1 POP PUSH2 0xF22 PUSH1 0x0 DUP4 ADD DUP6 PUSH2 0xC03 JUMP JUMPDEST PUSH2 0xF2F PUSH1 0x20 DUP4 ADD DUP5 PUSH2 0xCAF JUMP JUMPDEST SWAP4 SWAP3 POP POP POP JUMP JUMPDEST PUSH1 0x0 DUP2 ISZERO ISZERO SWAP1 POP SWAP2 SWAP1 POP JUMP JUMPDEST PUSH2 0xF4B DUP2 PUSH2 0xF36 JUMP JUMPDEST DUP2 EQ PUSH2 0xF56 JUMPI PUSH1 0x0 DUP1 REVERT JUMPDEST POP JUMP JUMPDEST PUSH1 0x0 DUP2 MLOAD SWAP1 POP PUSH2 0xF68 DUP2 PUSH2 0xF42 JUMP JUMPDEST SWAP3 SWAP2 POP POP JUMP JUMPDEST PUSH1 0x0 PUSH1 0x20 DUP3 DUP5 SUB SLT ISZERO PUSH2 0xF84 JUMPI PUSH2 0xF83 PUSH2 0xA38 JUMP JUMPDEST JUMPDEST PUSH1 0x0 PUSH2 0xF92 DUP5 DUP3 DUP6 ADD PUSH2 0xF59 JUMP JUMPDEST SWAP2 POP POP SWAP3 SWAP2 POP POP JUMP JUMPDEST PUSH1 0x0 DUP3 DUP3 MSTORE PUSH1 0x20 DUP3 ADD SWAP1 POP SWAP3 SWAP2 POP POP JUMP JUMPDEST PUSH32 0x496E76616C69642066726F6D546F6B656E000000000000000000000000000000 PUSH1 0x0 DUP3 ADD MSTORE POP JUMP JUMPDEST PUSH1 0x0 PUSH2 0xFE2 PUSH1 0x11 DUP4 PUSH2 0xF9B JUMP JUMPDEST SWAP2 POP PUSH2 0xFED DUP3 PUSH2 0xFAC JUMP JUMPDEST PUSH1 0x20 DUP3 ADD SWAP1 POP SWAP2 SWAP1 POP JUMP JUMPDEST PUSH1 0x0 PUSH1 0x20 DUP3 ADD SWAP1 POP DUP2 DUP2 SUB PUSH1 0x0 DUP4 ADD MSTORE PUSH2 0x1011 DUP2 PUSH2 0xFD5 JUMP JUMPDEST SWAP1 POP SWAP2 SWAP1 POP JUMP JUMPDEST PUSH32 0x496E76616C696420746F546F6B656E0000000000000000000000000000000000 PUSH1 0x0 DUP3 ADD MSTORE POP JUMP JUMPDEST PUSH1 0x0 PUSH2 0x104E PUSH1 0xF DUP4 PUSH2 0xF9B JUMP JUMPDEST SWAP2 POP PUSH2 0x1059 DUP3 PUSH2 0x1018 JUMP JUMPDEST PUSH1 0x20 DUP3 ADD SWAP1 POP SWAP2 SWAP1 POP JUMP JUMPDEST PUSH1 0x0 PUSH1 0x20 DUP3 ADD SWAP1 POP DUP2 DUP2 SUB PUSH1 0x0 DUP4 ADD MSTORE PUSH2 0x107D DUP2 PUSH2 0x1041 JUMP JUMPDEST SWAP1 POP SWAP2 SWAP1 POP JUMP JUMPDEST PUSH32 0x52617465206E6F74207365740000000000000000000000000000000000000000 PUSH1 0x0 DUP3 ADD MSTORE POP JUMP JUMPDEST PUSH1 0x0 PUSH2 0x10BA PUSH1 0xC DUP4 PUSH2 0xF9B JUMP JUMPDEST SWAP2 POP PUSH2 0x10C5 DUP3 PUSH2 0x1084 JUMP JUMPDEST PUSH1 0x20 DUP3 ADD SWAP1 POP SWAP2 SWAP1 POP JUMP JUMPDEST PUSH1 0x0 PUSH1 0x20 DUP3 ADD SWAP1 POP DUP2 DUP2 SUB PUSH1 0x0 DUP4 ADD MSTORE PUSH2 0x10E9 DUP2 PUSH2 0x10AD JUMP JUMPDEST SWAP1 POP SWAP2 SWAP1 POP JUMP JUMPDEST PUSH1 0x0 PUSH1 0x60 DUP3 ADD SWAP1 POP PUSH2 0x1105 PUSH1 0x0 DUP4 ADD DUP7 PUSH2 0xC03 JUMP JUMPDEST PUSH2 0x1112 PUSH1 0x20 DUP4 ADD DUP6 PUSH2 0xC03 JUMP JUMPDEST PUSH2 0x111F PUSH1 0x40 DUP4 ADD DUP5 PUSH2 0xCAF JUMP JUMPDEST SWAP5 SWAP4 POP POP POP POP JUMP JUMPDEST PUSH32 0x5472616E7366657246726F6D206661696C656400000000000000000000000000 PUSH1 0x0 DUP3 ADD MSTORE POP JUMP JUMPDEST PUSH1 0x0 PUSH2 0x115D PUSH1 0x13 DUP4 PUSH2 0xF9B JUMP JUMPDEST SWAP2 POP PUSH2 0x1168 DUP3 PUSH2 0x1127 JUMP JUMPDEST PUSH1 0x20 DUP3 ADD SWAP1 POP SWAP2 SWAP1 POP JUMP JUMPDEST PUSH1 0x0 PUSH1 0x20 DUP3 ADD SWAP1 POP DUP2 DUP2 SUB PUSH1 0x0 DUP4 ADD MSTORE PUSH2 0x118C DUP2 PUSH2 0x1150 JUMP JUMPDEST SWAP1 POP SWAP2 SWAP1 POP JUMP JUMPDEST PUSH32 0x4E487B7100000000000000000000000000000000000000000000000000000000 PUSH1 0x0 MSTORE PUSH1 0x11 PUSH1 0x4 MSTORE PUSH1 0x24 PUSH1 0x0 REVERT JUMPDEST PUSH1 0x0 PUSH2 0x11CD DUP3 PUSH2 0xCA5 JUMP JUMPDEST SWAP2 POP PUSH2 0x11D8 DUP4 PUSH2 0xCA5 JUMP JUMPDEST SWAP3 POP DUP3 DUP3 MUL PUSH2 0x11E6 DUP2 PUSH2 0xCA5 JUMP JUMPDEST SWAP2 POP DUP3 DUP3 DIV DUP5 EQ DUP4 ISZERO OR PUSH2 0x11FD JUMPI PUSH2 0x11FC PUSH2 0x1193 JUMP JUMPDEST JUMPDEST POP SWAP3 SWAP2 POP POP JUMP JUMPDEST PUSH32 0x4E487B7100000000000000000000000000000000000000000000000000000000 PUSH1 0x0 MSTORE PUSH1 0x12 PUSH1 0x4 MSTORE PUSH1 0x24 PUSH1 0x0 REVERT JUMPDEST PUSH1 0x0 PUSH2 0x123E DUP3 PUSH2 0xCA5 JUMP JUMPDEST SWAP2 POP PUSH2 0x1249 DUP4 PUSH2 0xCA5 JUMP JUMPDEST SWAP3 POP DUP3 PUSH2 0x1259 JUMPI PUSH2 0x1258 PUSH2 0x1204 JUMP JUMPDEST JUMPDEST DUP3 DUP3 DIV SWAP1 POP SWAP3 SWAP2 POP POP JUMP JUMPDEST PUSH32 0x5472616E7366657220746F2075736572206661696C6564000000000000000000 PUSH1 0x0 DUP3 ADD MSTORE POP JUMP JUMPDEST PUSH1 0x0 PUSH2 0x129A PUSH1 0x17 DUP4 PUSH2 0xF9B JUMP JUMPDEST SWAP2 POP PUSH2 0x12A5 DUP3 PUSH2 0x1264 JUMP JUMPDEST PUSH1 0x20 DUP3 ADD SWAP1 POP SWAP2 SWAP1 POP JUMP JUMPDEST PUSH1 0x0 PUSH1 0x20 DUP3 ADD SWAP1 POP DUP2 DUP2 SUB PUSH1 0x0 DUP4 ADD MSTORE PUSH2 0x12C9 DUP2 PUSH2 0x128D JUMP JUMPDEST SWAP1 POP SWAP2 SWAP1 POP JUMP JUMPDEST PUSH1 0x0 PUSH2 0x12DB DUP3 PUSH2 0xE85 JUMP JUMPDEST PUSH2 0x12E5 DUP2 DUP6 PUSH2 0xF9B JUMP JUMPDEST SWAP4 POP PUSH2 0x12F5 DUP2 DUP6 PUSH1 0x20 DUP7 ADD PUSH2 0xE9B JUMP JUMPDEST PUSH2 0x12FE DUP2 PUSH2 0xA4C JUMP JUMPDEST DUP5 ADD SWAP2 POP POP SWAP3 SWAP2 POP POP JUMP JUMPDEST PUSH1 0x0 PUSH1 0x80 DUP3 ADD SWAP1 POP DUP2 DUP2 SUB PUSH1 0x0 DUP4 ADD MSTORE PUSH2 0x1323 DUP2 DUP8 PUSH2 0x12D0 JUMP JUMPDEST SWAP1 POP DUP2 DUP2 SUB PUSH1 0x20 DUP4 ADD MSTORE PUSH2 0x1337 DUP2 DUP7 PUSH2 0x12D0 JUMP JUMPDEST SWAP1 POP PUSH2 0x1346 PUSH1 0x40 DUP4 ADD DUP6 PUSH2 0xCAF JUMP JUMPDEST PUSH2 0x1353 PUSH1 0x60 DUP4 ADD DUP5 PUSH2 0xCAF JUMP JUMPDEST SWAP6 SWAP5 POP POP POP POP POP JUMP INVALID LOG2 PUSH5 0x6970667358 0x22 SLT KECCAK256 ORIGIN 0xBA JUMPDEST 0x5D PUSH30 0xF06F4E9E89FC94BD741D7517669675535652B2C6C9E1E2BB6CAFCD64736F PUSH13 0x63430008140033000000000000 "
        },
        "methodIdentifiers": {
          "emergencyWithdraw(address,uint256)": "95ccea67",
          "exchangeRates(string,string)": "62860a2b",
          "owner()": "8da5cb5b",
          "registerToken(string,address)": "69f667ed",
          "renounceOwnership()": "715018a6",
          "setRate(string,string,uint256)": "77e7fc46",
          "swap(string,string,uint256)": "a451f602",
          "tokens(string)": "04c2320b",
          "transferOwnership(address)": "f2fde38b"
        }
      }
    }
  }
}