{
  "_format": "hh-sol-artifact-1",
  "contractName": "CryptoArenaExchange",
  "sourceName": "contracts/CryptoArenaExchange.sol",
  "abi": [
    {
      "inputs": [
        {
          "internalType": "address",
          "name": "initialOwner",
          "type": "address"
        }
      ],
      "stateMutability": "nonpayable",
      "type": "constructor"
    },
    {
      "inputs": [
        {
          "internalType": "address",
          "name": "owner",
          "type": "address"
        }
      ],
      "name": "OwnableInvalidOwner",
      "type": "error"
    },
    {
      "inputs": [
        {
          "internalType": "address",
          "name": "account",
          "type": "address"
        }
      ],
      "name": "OwnableUnauthorizedAccount",
      "type": "error"
    },
    {
      "anonymous": false,
      "inputs": [
        {
          "indexed": true,
          "internalType": "address",
          "name": "previousOwner",
          "type": "address"
        },
        {
          "indexed": true,
          "internalType": "address",
          "name": "newOwner",
          "type": "address"
        }
      ],
      "name": "OwnershipTransferred",
      "type": "event"
    },
    {
      "anonymous": false,
      "inputs": [
        {
          "indexed": true,
          "internalType": "address",
          "name": "user",
          "type": "address"
        },
        {
          "indexed": false,
          "internalType": "string",
          "name": "fromToken",
          "type": "string"
        },
        {
          "indexed": false,
          "internalType": "string",
          "name": "toToken",
          "type": "string"
        },
        {
          "indexed": false,
          "internalType": "uint256",
          "name": "amountIn",
          "type": "uint256"
        },
        {
          "indexed": false,
          "internalType": "uint256",
          "name": "amountOut",
          "type": "uint256"
        }
      ],
      "name": "Swapped",
      "type": "event"
    },
    {
      "inputs": [
        {
          "internalType": "address",
          "name": "token",
          "type": "address"
        },
        {
          "internalType": "uint256",
          "name": "amount",
          "type": "uint256"
        }
      ],
      "name": "emergencyWithdraw",
      "outputs": [],
      "stateMutability": "nonpayable",
      "type": "function"
    },
    {
      "inputs": [
        {
          "internalType": "string",
          "name": "",
          "type": "string"
        },
        {
          "internalType": "string",
          "name": "",
          "type": "string"
        }
      ],
      "name": "exchangeRates",
      "outputs": [
        {
          "internalType": "uint256",
          "name": "",
          "type": "uint256"
        }
      ],
      "stateMutability": "view",
      "type": "function"
    },
    {
      "inputs": [],
      "name": "owner",
      "outputs": [
        {
          "internalType": "address",
          "name": "",
          "type": "address"
        }
      ],
      "stateMutability": "view",
      "type": "function"
    },
    {
      "inputs": [
        {
          "internalType": "string",
          "name": "symbol",
          "type": "string"
        },
        {
          "internalType": "address",
          "name": "tokenAddress",
          "type": "address"
        }
      ],
      "name": "registerToken",
      "outputs": [],
      "stateMutability": "nonpayable",
      "type": "function"
    },
    {
      "inputs": [],
      "name": "renounceOwnership",
      "outputs": [],
      "stateMutability": "nonpayable",
      "type": "function"
    },
    {
      "inputs": [
        {
          "internalType": "string",
          "name": "fromToken",
          "type": "string"
        },
        {
          "internalType": "string",
          "name": "toToken",
          "type": "string"
        },
        {
          "internalType": "uint256",
          "name": "rate",
          "type": "uint256"
        }
      ],
      "name": "setRate",
      "outputs": [],
      "stateMutability": "nonpayable",
      "type": "function"
    },
    {
      "inputs": [
        {
          "internalType": "string",
          "name": "fromToken",
          "type": "string"
        },
        {
          "internalType": "string",
          "name": "toToken",
          "type": "string"
        },
        {
          "internalType": "uint256",
          "name": "amountIn",
          "type": "uint256"
        }
      ],
      "name": "swap",
      "outputs": [],
      "stateMutability": "nonpayable",
      "type": "function"
    },
    {
      "inputs": [
        {
          "internalType": "string",
          "name": "",
          "type": "string"
        }
      ],
      "name": "tokens",
      "outputs": [
        {
          "internalType": "address",
          "name": "",
          "type": "address"
        }
      ],
      "stateMutability": "view",
      "type": "function"
    },
    {
      "inputs": [
        {
          "internalType": "address",
          "name": "newOwner",
          "type": "address"
        }
      ],
      "name": "transferOwnership",
      "outputs": [],
      "stateMutability": "nonpayable",
      "type": "function"
    }
  ],
  "bytecode": "0x60806040523480156200001157600080fd5b50604051620015f6380380620015f68339818101604052810190620000379190620001f4565b80600073ffffffffffffffffffffffffffffffffffffffff168173ffffffffffffffffffffffffffffffffffffffff1603620000ad5760006040517f1e4fbdf7000000000000000000000000000000000000000000000000000000008152600401620000a4919062000237565b60405180910390fd5b620000be81620000c660201b60201c565b505062000254565b60008060009054906101000a900473ffffffffffffffffffffffffffffffffffffffff169050816000806101000a81548173ffffffffffffffffffffffffffffffffffffffff021916908373ffffffffffffffffffffffffffffffffffffffff1602179055508173ffffffffffffffffffffffffffffffffffffffff168173ffffffffffffffffffffffffffffffffffffffff167f8be0079c531659141344cd1fd0a4f28419497f9722a3daafe3b4186f6b6457e060405160405180910390a35050565b600080fd5b600073ffffffffffffffffffffffffffffffffffffffff82169050919050565b6000620001bc826200018f565b9050919050565b620001ce81620001af565b8114620001da57600080fd5b50565b600081519050620001ee81620001c3565b92915050565b6000602082840312156200020d576200020c6200018a565b5b60006200021d84828501620001dd565b91505092915050565b6200023181620001af565b82525050565b60006020820190506200024e600083018462000226565b92915050565b61139280620002646000396000f3fe608060405234801561001057600080fd5b50600436106100935760003560e01c806377e7fc461161006657806377e7fc461461011e5780638da5cb5b1461013a57806395ccea6714610158578063a451f60214610174578063f2fde38b1461019057610093565b806304c2320b1461009857806362860a2b146100c857806369f667ed146100f8578063715018a614610114575b600080fd5b6100b260048036038101906100ad9190610b88565b6101ac565b6040516100bf9190610c12565b60405180910390f35b6100e260048036038101906100dd9190610c2d565b6101f5565b6040516100ef9190610cbe565b60405180910390f35b610112600480360381019061010d9190610d05565b610246565b005b61011c6102af565b005b61013860048036038101906101339190610d8d565b6102c3565b005b61014261030f565b60405161014f9190610c12565b60405180910390f35b610172600480360381019061016d9190610e18565b610338565b005b61018e60048036038101906101899190610d8d565b6103c3565b005b6101aa60048036038101906101a59190610e58565b610855565b005b6001818051602081018201805184825260208301602085012081835280955050505050506000915054906101000a900473ffffffffffffffffffffffffffffffffffffffff1681565b60028280516020810182018051848252602083016020850120818352809550505050505081805160208101820180518482526020830160208501208183528095505050505050600091509150505481565b61024e6108db565b8060018360405161025f9190610ef6565b908152602001604051809103902060006101000a81548173ffffffffffffffffffffffffffffffffffffffff021916908373ffffffffffffffffffffffffffffffffffffffff1602179055505050565b6102b76108db565b6102c16000610962565b565b6102cb6108db565b806002846040516102dc9190610ef6565b9081526020016040518091039020836040516102f89190610ef6565b908152602001604051809103902081905550505050565b60008060009054906101000a900473ffffffffffffffffffffffffffffffffffffffff16905090565b6103406108db565b8173ffffffffffffffffffffffffffffffffffffffff1663a9059cbb33836040518363ffffffff1660e01b815260040161037b929190610f0d565b6020604051808303816000875af115801561039a573d6000803e3d6000fd5b505050506040513d601f19601f820116820180604052508101906103be9190610f6e565b505050565b600073ffffffffffffffffffffffffffffffffffffffff166001846040516103eb9190610ef6565b908152602001604051809103902060009054906101000a900473ffffffffffffffffffffffffffffffffffffffff1673ffffffffffffffffffffffffffffffffffffffff1603610470576040517f08c379a000000000000000000000000000000000000000000000000000000000815260040161046790610ff8565b60405180910390fd5b600073ffffffffffffffffffffffffffffffffffffffff166001836040516104989190610ef6565b908152602001604051809103902060009054906101000a900473ffffffffffffffffffffffffffffffffffffffff1673ffffffffffffffffffffffffffffffffffffffff160361051d576040517f08c379a000000000000000000000000000000000000000000000000000000000815260040161051490611064565b60405180910390fd5b600060028460405161052f9190610ef6565b90815260200160405180910390208360405161054b9190610ef6565b9081526020016040518091039020541161059a576040517f08c379a0000000000000000000000000000000000000000000000000000000008152600401610591906110d0565b60405180910390fd5b60006001846040516105ac9190610ef6565b908152602001604051809103902060009054906101000a900473ffffffffffffffffffffffffffffffffffffffff16905060006001846040516105ef9190610ef6565b908152602001604051809103902060009054906101000a900473ffffffffffffffffffffffffffffffffffffffff1690508173ffffffffffffffffffffffffffffffffffffffff166323b872dd3330866040518463ffffffff1660e01b815260040161065d939291906110f0565b6020604051808303816000875af115801561067c573d6000803e3d6000fd5b505050506040513d601f19601f820116820180604052508101906106a09190610f6e565b6106df576040517f08c379a00000000000000000000000000000000000000000000000000000000081526004016106d690611173565b60405180910390fd5b6000670de0b6b3a76400006002876040516106fa9190610ef6565b9081526020016040518091039020866040516107169190610ef6565b9081526020016040518091039020548561073091906111c2565b61073a9190611233565b90508173ffffffffffffffffffffffffffffffffffffffff1663a9059cbb33836040518363ffffffff1660e01b8152600401610777929190610f0d565b6020604051808303816000875af1158015610796573d6000803e3d6000fd5b505050506040513d601f19601f820116820180604052508101906107ba9190610f6e565b6107f9576040517f08c379a00000000000000000000000000000000000000000000000000000000081526004016107f0906112b0565b60405180910390fd5b3373ffffffffffffffffffffffffffffffffffffffff167f31e905862a866c66985eb1bac19ecf227feb490b2fca79b3ce683575ae584598878787856040516108459493929190611309565b60405180910390a2505050505050565b61085d6108db565b600073ffffffffffffffffffffffffffffffffffffffff168173ffffffffffffffffffffffffffffffffffffffff16036108cf5760006040517f1e4fbdf70000000000000000000000000000000000000000000000000000000081526004016108c69190610c12565b60405180910390fd5b6108d881610962565b50565b6108e3610a26565b73ffffffffffffffffffffffffffffffffffffffff1661090161030f565b73ffffffffffffffffffffffffffffffffffffffff161461096057610924610a26565b6040517f118cdaa70000000000000000000000000000000000000000000000000000000081526004016109579190610c12565b60405180910390fd5b565b60008060009054906101000a900473ffffffffffffffffffffffffffffffffffffffff169050816000806101000a81548173ffffffffffffffffffffffffffffffffffffffff021916908373ffffffffffffffffffffffffffffffffffffffff1602179055508173ffffffffffffffffffffffffffffffffffffffff168173ffffffffffffffffffffffffffffffffffffffff167f8be0079c531659141344cd1fd0a4f28419497f9722a3daafe3b4186f6b6457e060405160405180910390a35050565b600033905090565b6000604051905090565b600080fd5b600080fd5b600080fd5b600080fd5b6000601f19601f8301169050919050565b7f4e487b7100000000000000000000000000000000000000000000000000000000600052604160045260246000fd5b610a9582610a4c565b810181811067ffffffffffffffff82111715610ab457610ab3610a5d565b5b80604052505050565b6000610ac7610a2e565b9050610ad38282610a8c565b919050565b600067ffffffffffffffff821115610af357610af2610a5d565b5b610afc82610a4c565b9050602081019050919050565b82818337600083830152505050565b6000610b2b610b2684610ad8565b610abd565b905082815260208101848484011115610b4757610b46610a47565b5b610b52848285610b09565b509392505050565b600082601f830112610b6f57610b6e610a42565b5b8135610b7f848260208601610b18565b91505092915050565b600060208284031215610b9e57610b9d610a38565b5b600082013567ffffffffffffffff811115610bbc57610bbb610a3d565b5b610bc884828501610b5a565b91505092915050565b600073ffffffffffffffffffffffffffffffffffffffff82169050919050565b6000610bfc82610bd1565b9050919050565b610c0c81610bf1565b82525050565b6000602082019050610c276000830184610c03565b92915050565b60008060408385031215610c4457610c43610a38565b5b600083013567ffffffffffffffff811115610c6257610c61610a3d565b5b610c6e85828601610b5a565b925050602083013567ffffffffffffffff811115610c8f57610c8e610a3d565b5b610c9b85828601610b5a565b9150509250929050565b6000819050919050565b610cb881610ca5565b82525050565b6000602082019050610cd36000830184610caf565b92915050565b610ce281610bf1565b8114610ced57600080fd5b50565b600081359050610cff81610cd9565b92915050565b60008060408385031215610d1c57610d1b610a38565b5b600083013567ffffffffffffffff811115610d3a57610d39610a3d565b5b610d4685828601610b5a565b9250506020610d5785828601610cf0565b9150509250929050565b610d6a81610ca5565b8114610d7557600080fd5b50565b600081359050610d8781610d61565b92915050565b600080600060608486031215610da657610da5610a38565b5b600084013567ffffffffffffffff811115610dc457610dc3610a3d565b5b610dd086828701610b5a565b935050602084013567ffffffffffffffff811115610df157610df0610a3d565b5b610dfd86828701610b5a565b9250506040610e0e86828701610d78565b9150509250925092565b60008060408385031215610e2f57610e2e610a38565b5b6000610e3d85828601610cf0565b9250506020610e4e85828601610d78565b9150509250929050565b600060208284031215610e6e57610e6d610a38565b5b6000610e7c84828501610cf0565b91505092915050565b600081519050919050565b600081905092915050565b60005b83811015610eb9578082015181840152602081019050610e9e565b60008484015250505050565b6000610ed082610e85565b610eda8185610e90565b9350610eea818560208601610e9b565b80840191505092915050565b6000610f028284610ec5565b915081905092915050565b6000604082019050610f226000830185610c03565b610f2f6020830184610caf565b9392505050565b60008115159050919050565b610f4b81610f36565b8114610f5657600080fd5b50565b600081519050610f6881610f42565b92915050565b600060208284031215610f8457610f83610a38565b5b6000610f9284828501610f59565b91505092915050565b600082825260208201905092915050565b7f496e76616c69642066726f6d546f6b656e000000000000000000000000000000600082015250565b6000610fe2601183610f9b565b9150610fed82610fac565b602082019050919050565b6000602082019050818103600083015261101181610fd5565b9050919050565b7f496e76616c696420746f546f6b656e0000000000000000000000000000000000600082015250565b600061104e600f83610f9b565b915061105982611018565b602082019050919050565b6000602082019050818103600083015261107d81611041565b9050919050565b7f52617465206e6f74207365740000000000000000000000000000000000000000600082015250565b60006110ba600c83610f9b565b91506110c582611084565b602082019050919050565b600060208201905081810360008301526110e9816110ad565b9050919050565b60006060820190506111056000830186610c03565b6111126020830185610c03565b61111f6040830184610caf565b949350505050565b7f5472616e7366657246726f6d206661696c656400000000000000000000000000600082015250565b600061115d601383610f9b565b915061116882611127565b602082019050919050565b6000602082019050818103600083015261118c81611150565b9050919050565b7f4e487b7100000000000000000000000000000000000000000000000000000000600052601160045260246000fd5b60006111cd82610ca5565b91506111d883610ca5565b92508282026111e681610ca5565b915082820484148315176111fd576111fc611193565b5b5092915050565b7f4e487b7100000000000000000000000000000000000000000000000000000000600052601260045260246000fd5b600061123e82610ca5565b915061124983610ca5565b92508261125957611258611204565b5b828204905092915050565b7f5472616e7366657220746f2075736572206661696c6564000000000000000000600082015250565b600061129a601783610f9b565b91506112a582611264565b602082019050919050565b600060208201905081810360008301526112c98161128d565b9050919050565b60006112db82610e85565b6112e58185610f9b565b93506112f5818560208601610e9b565b6112fe81610a4c565b840191505092915050565b6000608082019050818103600083015261132381876112d0565b9050818103602083015261133781866112d0565b90506113466040830185610caf565b6113536060830184610caf565b9594505050505056fea264697066735822122032ba5b5d7df06f4e9e89fc94bd741d7517669675535652b2c6c9e1e2bb6cafcd64736f6c63430008140033",
  "linkReferences": {},
  "deployedLinkReferences": {}
}