{
  "_format": "hh-sol-artifact-1",
  "contractName": "CryptoArenaExchange",
  "sourceName": "contracts/CryptoArenaExchange.sol",
  "abi": [
    {
      "inputs": [],
      "stateMutability": "nonpayable",
      "type": "constructor"
    },
    {
      "anonymous": false,
      "inputs": [
        {
          "indexed": true,
          "internalType": "address",
          "name": "user",
          "type": "address"
        },
        {
          "indexed": false,
          "internalType": "uint256",
          "name": "amount",
          "type": "uint256"
        }
      ],
      "name": "Deposited",
      "type": "event"
    },
    {
      "anonymous": false,
      "inputs": [
        {
          "indexed": true,
          "internalType": "address",
          "name": "user",
          "type": "address"
        },
        {
          "indexed": false,
          "internalType": "uint256",
          "name": "amount",
          "type": "uint256"
        }
      ],
      "name": "Withdrawn",
      "type": "event"
    },
    {
      "inputs": [
        {
          "internalType": "address",
          "name": "",
          "type": "address"
        }
      ],
      "name": "balances",
      "outputs": [
        {
          "internalType": "uint256",
          "name": "",
          "type": "uint256"
        }
      ],
      "stateMutability": "view",
      "type": "function"
    },
    {
      "inputs": [],
      "name": "deposit",
      "outputs": [],
      "stateMutability": "payable",
      "type": "function"
    },
    {
      "inputs": [
        {
          "internalType": "address",
          "name": "user",
          "type": "address"
        }
      ],
      "name": "getBalance",
      "outputs": [
        {
          "internalType": "uint256",
          "name": "",
          "type": "uint256"
        }
      ],
      "stateMutability": "view",
      "type": "function"
    },
    {
      "inputs": [],
      "name": "owner",
      "outputs": [
        {
          "internalType": "address",
          "name": "",
          "type": "address"
        }
      ],
      "stateMutability": "view",
      "type": "function"
    },
    {
      "inputs": [
        {
          "internalType": "uint256",
          "name": "amount",
          "type": "uint256"
        }
      ],
      "name": "withdraw",
      "outputs": [],
      "stateMutability": "nonpayable",
      "type": "function"
    },
    {
      "inputs": [],
      "name": "withdrawAll",
      "outputs": [],
      "stateMutability": "nonpayable",
      "type": "function"
    }
  ],
  "bytecode": "0x608060405234801561001057600080fd5b50336000806101000a81548173ffffffffffffffffffffffffffffffffffffffff021916908373ffffffffffffffffffffffffffffffffffffffff160217905550610887806100606000396000f3fe6080604052600436106100555760003560e01c806327e235e31461005a5780632e1a7d4d14610097578063853828b6146100c05780638da5cb5b146100d7578063d0e30db014610102578063f8b2cb4f1461010c575b600080fd5b34801561006657600080fd5b50610081600480360381019061007c9190610581565b610149565b60405161008e91906105c7565b60405180910390f35b3480156100a357600080fd5b506100be60048036038101906100b9919061060e565b610161565b005b3480156100cc57600080fd5b506100d56102d1565b005b3480156100e357600080fd5b506100ec6103c8565b6040516100f9919061064a565b60405180910390f35b61010a6103ec565b005b34801561011857600080fd5b50610133600480360381019061012e9190610581565b6104d5565b60405161014091906105c7565b60405180910390f35b60016020528060005260406000206000915090505481565b80600160003373ffffffffffffffffffffffffffffffffffffffff1673ffffffffffffffffffffffffffffffffffffffff1681526020019081526020016000205410156101e3576040517f08c379a00000000000000000000000000000000000000000000000000000000081526004016101da906106c2565b60405180910390fd5b80600160003373ffffffffffffffffffffffffffffffffffffffff1673ffffffffffffffffffffffffffffffffffffffff16815260200190815260200160002060008282546102329190610711565b925050819055503373ffffffffffffffffffffffffffffffffffffffff166108fc829081150290604051600060405180830381858888f1935050505015801561027f573d6000803e3d6000fd5b503373ffffffffffffffffffffffffffffffffffffffff167f7084f5476618d8e60b11ef0d7d3f06914655adb8793e28ff7f018d4c76d505d5826040516102c691906105c7565b60405180910390a250565b60008054906101000a900473ffffffffffffffffffffffffffffffffffffffff1673ffffffffffffffffffffffffffffffffffffffff163373ffffffffffffffffffffffffffffffffffffffff161461035f576040517f08c379a000000000000000000000000000000000000000000000000000000000815260040161035690610791565b60405180910390fd5b60008054906101000a900473ffffffffffffffffffffffffffffffffffffffff1673ffffffffffffffffffffffffffffffffffffffff166108fc479081150290604051600060405180830381858888f193505050501580156103c5573d6000803e3d6000fd5b50565b60008054906101000a900473ffffffffffffffffffffffffffffffffffffffff1681565b6000341161042f576040517f08c379a0000000000000000000000000000000000000000000000000000000008152600401610426906107fd565b60405180910390fd5b34600160003373ffffffffffffffffffffffffffffffffffffffff1673ffffffffffffffffffffffffffffffffffffffff168152602001908152602001600020600082825461047e919061081d565b925050819055503373ffffffffffffffffffffffffffffffffffffffff167f2da466a7b24304f47e87fa2e1e5a81b9831ce54fec19055ce277ca2f39ba42c4346040516104cb91906105c7565b60405180910390a2565b6000600160008373ffffffffffffffffffffffffffffffffffffffff1673ffffffffffffffffffffffffffffffffffffffff168152602001908152602001600020549050919050565b600080fd5b600073ffffffffffffffffffffffffffffffffffffffff82169050919050565b600061054e82610523565b9050919050565b61055e81610543565b811461056957600080fd5b50565b60008135905061057b81610555565b92915050565b6000602082840312156105975761059661051e565b5b60006105a58482850161056c565b91505092915050565b6000819050919050565b6105c1816105ae565b82525050565b60006020820190506105dc60008301846105b8565b92915050565b6105eb816105ae565b81146105f657600080fd5b50565b600081359050610608816105e2565b92915050565b6000602082840312156106245761062361051e565b5b6000610632848285016105f9565b91505092915050565b61064481610543565b82525050565b600060208201905061065f600083018461063b565b92915050565b600082825260208201905092915050565b7f496e73756666696369656e742062616c616e6365000000000000000000000000600082015250565b60006106ac601483610665565b91506106b782610676565b602082019050919050565b600060208201905081810360008301526106db8161069f565b9050919050565b7f4e487b7100000000000000000000000000000000000000000000000000000000600052601160045260246000fd5b600061071c826105ae565b9150610727836105ae565b925082820390508181111561073f5761073e6106e2565b5b92915050565b7f4e6f74206f776e65720000000000000000000000000000000000000000000000600082015250565b600061077b600983610665565b915061078682610745565b602082019050919050565b600060208201905081810360008301526107aa8161076e565b9050919050565b7f4d7573742073656e642045544800000000000000000000000000000000000000600082015250565b60006107e7600d83610665565b91506107f2826107b1565b602082019050919050565b60006020820190508181036000830152610816816107da565b9050919050565b6000610828826105ae565b9150610833836105ae565b925082820190508082111561084b5761084a6106e2565b5b9291505056fea26469706673582212200b7065183362cee44e18e2b5064cc76be45fe3212217d76f99e579278f9287d964736f6c63430008140033",
  "linkReferences": {},
  "deployedLinkReferences": {}
}