{
  "_format": "hh-sol-artifact-1",
  "contractName": "MockToken",
  "sourceName": "contracts/MockToken.sol",
  "abi": [
    {
      "inputs": [
        {
          "internalType": "string",
          "name": "name",
          "type": "string"
        },
        {
          "internalType": "string",
          "name": "symbol",
          "type": "string"
        },
        {
          "internalType": "address",
          "name": "initialOwner",
          "type": "address"
        }
      ],
      "stateMutability": "nonpayable",
      "type": "constructor"
    },
    {
      "inputs": [
        {
          "internalType": "address",
          "name": "spender",
          "type": "address"
        },
        {
          "internalType": "uint256",
          "name": "allowance",
          "type": "uint256"
        },
        {
          "internalType": "uint256",
          "name": "needed",
          "type": "uint256"
        }
      ],
      "name": "ERC20InsufficientAllowance",
      "type": "error"
    },
    {
      "inputs": [
        {
          "internalType": "address",
          "name": "sender",
          "type": "address"
        },
        {
          "internalType": "uint256",
          "name": "balance",
          "type": "uint256"
        },
        {
          "internalType": "uint256",
          "name": "needed",
          "type": "uint256"
        }
      ],
      "name": "ERC20InsufficientBalance",
      "type": "error"
    },
    {
      "inputs": [
        {
          "internalType": "address",
          "name": "approver",
          "type": "address"
        }
      ],
      "name": "ERC20InvalidApprover",
      "type": "error"
    },
    {
      "inputs": [
        {
          "internalType": "address",
          "name": "receiver",
          "type": "address"
        }
      ],
      "name": "ERC20InvalidReceiver",
      "type": "error"
    },
    {
      "inputs": [
        {
          "internalType": "address",
          "name": "sender",
          "type": "address"
        }
      ],
      "name": "ERC20InvalidSender",
      "type": "error"
    },
    {
      "inputs": [
        {
          "internalType": "address",
          "name": "spender",
          "type": "address"
        }
      ],
      "name": "ERC20InvalidSpender",
      "type": "error"
    },
    {
      "inputs": [
        {
          "internalType": "address",
          "name": "owner",
          "type": "address"
        }
      ],
      "name": "OwnableInvalidOwner",
      "type": "error"
    },
    {
      "inputs": [
        {
          "internalType": "address",
          "name": "account",
          "type": "address"
        }
      ],
      "name": "OwnableUnauthorizedAccount",
      "type": "error"
    },
    {
      "anonymous": false,
      "inputs": [
        {
          "indexed": true,
          "internalType": "address",
          "name": "owner",
          "type": "address"
        },
        {
          "indexed": true,
          "internalType": "address",
          "name": "spender",
          "type": "address"
        },
        {
          "indexed": false,
          "internalType": "uint256",
          "name": "value",
          "type": "uint256"
        }
      ],
      "name": "Approval",
      "type": "event"
    },
    {
      "anonymous": false,
      "inputs": [
        {
          "indexed": true,
          "internalType": "address",
          "name": "previousOwner",
          "type": "address"
        },
        {
          "indexed": true,
          "internalType": "address",
          "name": "newOwner",
          "type": "address"
        }
      ],
      "name": "OwnershipTransferred",
      "type": "event"
    },
    {
      "anonymous": false,
      "inputs": [
        {
          "indexed": true,
          "internalType": "address",
          "name": "from",
          "type": "address"
        },
        {
          "indexed": true,
          "internalType": "address",
          "name": "to",
          "type": "address"
        },
        {
          "indexed": false,
          "internalType": "uint256",
          "name": "value",
          "type": "uint256"
        }
      ],
      "name": "Transfer",
      "type": "event"
    },
    {
      "inputs": [
        {
          "internalType": "address",
          "name": "owner",
          "type": "address"
        },
        {
          "internalType": "address",
          "name": "spender",
          "type": "address"
        }
      ],
      "name": "allowance",
      "outputs": [
        {
          "internalType": "uint256",
          "name": "",
          "type": "uint256"
        }
      ],
      "stateMutability": "view",
      "type": "function"
    },
    {
      "inputs": [
        {
          "internalType": "address",
          "name": "spender",
          "type": "address"
        },
        {
          "internalType": "uint256",
          "name": "value",
          "type": "uint256"
        }
      ],
      "name": "approve",
      "outputs": [
        {
          "internalType": "bool",
          "name": "",
          "type": "bool"
        }
      ],
      "stateMutability": "nonpayable",
      "type": "function"
    },
    {
      "inputs": [
        {
          "internalType": "address",
          "name": "account",
          "type": "address"
        }
      ],
      "name": "balanceOf",
      "outputs": [
        {
          "internalType": "uint256",
          "name": "",
          "type": "uint256"
        }
      ],
      "stateMutability": "view",
      "type": "function"
    },
    {
      "inputs": [],
      "name": "decimals",
      "outputs": [
        {
          "internalType": "uint8",
          "name": "",
          "type": "uint8"
        }
      ],
      "stateMutability": "view",
      "type": "function"
    },
    {
      "inputs": [
        {
          "internalType": "address",
          "name": "to",
          "type": "address"
        },
        {
          "internalType": "uint256",
          "name": "amount",
          "type": "uint256"
        }
      ],
      "name": "faucet",
      "outputs": [],
      "stateMutability": "nonpayable",
      "type": "function"
    },
    {
      "inputs": [],
      "name": "name",
      "outputs": [
        {
          "internalType": "string",
          "name": "",
          "type": "string"
        }
      ],
      "stateMutability": "view",
      "type": "function"
    },
    {
      "inputs": [],
      "name": "owner",
      "outputs": [
        {
          "internalType": "address",
          "name": "",
          "type": "address"
        }
      ],
      "stateMutability": "view",
      "type": "function"
    },
    {
      "inputs": [],
      "name": "renounceOwnership",
      "outputs": [],
      "stateMutability": "nonpayable",
      "type": "function"
    },
    {
      "inputs": [],
      "name": "symbol",
      "outputs": [
        {
          "internalType": "string",
          "name": "",
          "type": "string"
        }
      ],
      "stateMutability": "view",
      "type": "function"
    },
    {
      "inputs": [],
      "name": "totalSupply",
      "outputs": [
        {
          "internalType": "uint256",
          "name": "",
          "type": "uint256"
        }
      ],
      "stateMutability": "view",
      "type": "function"
    },
    {
      "inputs": [
        {
          "internalType": "address",
          "name": "to",
          "type": "address"
        },
        {
          "internalType": "uint256",
          "name": "value",
          "type": "uint256"
        }
      ],
      "name": "transfer",
      "outputs": [
        {
          "internalType": "bool",
          "name": "",
          "type": "bool"
        }
      ],
      "stateMutability": "nonpayable",
      "type": "function"
    },
    {
      "inputs": [
        {
          "internalType": "address",
          "name": "from",
          "type": "address"
        },
        {
          "internalType": "address",
          "name": "to",
          "type": "address"
        },
        {
          "internalType": "uint256",
          "name": "value",
          "type": "uint256"
        }
      ],
      "name": "transferFrom",
      "outputs": [
        {
          "internalType": "bool",
          "name": "",
          "type": "bool"
        }
      ],
      "stateMutability": "nonpayable",
      "type": "function"
    },
    {
      "inputs": [
        {
          "internalType": "address",
          "name": "newOwner",
          "type": "address"
        }
      ],
      "name": "transferOwnership",
      "outputs": [],
      "stateMutability": "nonpayable",
      "type": "function"
    }
  ],
  "bytecode": "0x60806040523480156200001157600080fd5b50604051620019a0380380620019a08339818101604052810190620000379190620003ae565b80838381600390816200004b919062000693565b5080600490816200005d919062000693565b505050600073ffffffffffffffffffffffffffffffffffffffff168173ffffffffffffffffffffffffffffffffffffffff1603620000d55760006040517f1e4fbdf7000000000000000000000000000000000000000000000000000000008152600401620000cc91906200078b565b60405180910390fd5b620000e681620000f060201b60201c565b50505050620007a8565b6000600560009054906101000a900473ffffffffffffffffffffffffffffffffffffffff16905081600560006101000a81548173ffffffffffffffffffffffffffffffffffffffff021916908373ffffffffffffffffffffffffffffffffffffffff1602179055508173ffffffffffffffffffffffffffffffffffffffff168173ffffffffffffffffffffffffffffffffffffffff167f8be0079c531659141344cd1fd0a4f28419497f9722a3daafe3b4186f6b6457e060405160405180910390a35050565b6000604051905090565b600080fd5b600080fd5b600080fd5b600080fd5b6000601f19601f8301169050919050565b7f4e487b7100000000000000000000000000000000000000000000000000000000600052604160045260246000fd5b6200021f82620001d4565b810181811067ffffffffffffffff82111715620002415762000240620001e5565b5b80604052505050565b600062000256620001b6565b905062000264828262000214565b919050565b600067ffffffffffffffff821115620002875762000286620001e5565b5b6200029282620001d4565b9050602081019050919050565b60005b83811015620002bf578082015181840152602081019050620002a2565b60008484015250505050565b6000620002e2620002dc8462000269565b6200024a565b905082815260208101848484011115620003015762000300620001cf565b5b6200030e8482856200029f565b509392505050565b600082601f8301126200032e576200032d620001ca565b5b815162000340848260208601620002cb565b91505092915050565b600073ffffffffffffffffffffffffffffffffffffffff82169050919050565b6000620003768262000349565b9050919050565b620003888162000369565b81146200039457600080fd5b50565b600081519050620003a8816200037d565b92915050565b600080600060608486031215620003ca57620003c9620001c0565b5b600084015167ffffffffffffffff811115620003eb57620003ea620001c5565b5b620003f98682870162000316565b935050602084015167ffffffffffffffff8111156200041d576200041c620001c5565b5b6200042b8682870162000316565b92505060406200043e8682870162000397565b9150509250925092565b600081519050919050565b7f4e487b7100000000000000000000000000000000000000000000000000000000600052602260045260246000fd5b600060028204905060018216806200049b57607f821691505b602082108103620004b157620004b062000453565b5b50919050565b60008190508160005260206000209050919050565b60006020601f8301049050919050565b600082821b905092915050565b6000600883026200051b7fffffffffffffffffffffffffffffffffffffffffffffffffffffffffffffffff82620004dc565b620005278683620004dc565b95508019841693508086168417925050509392505050565b6000819050919050565b6000819050919050565b6000620005746200056e62000568846200053f565b62000549565b6200053f565b9050919050565b6000819050919050565b620005908362000553565b620005a86200059f826200057b565b848454620004e9565b825550505050565b600090565b620005bf620005b0565b620005cc81848462000585565b505050565b5b81811015620005f457620005e8600082620005b5565b600181019050620005d2565b5050565b601f82111562000643576200060d81620004b7565b6200061884620004cc565b8101602085101562000628578190505b620006406200063785620004cc565b830182620005d1565b50505b505050565b600082821c905092915050565b6000620006686000198460080262000648565b1980831691505092915050565b600062000683838362000655565b9150826002028217905092915050565b6200069e8262000448565b67ffffffffffffffff811115620006ba57620006b9620001e5565b5b620006c6825462000482565b620006d3828285620005f8565b600060209050601f8311600181146200070b5760008415620006f6578287015190505b62000702858262000675565b86555062000772565b601f1984166200071b86620004b7565b60005b8281101562000745578489015182556001820191506020850194506020810190506200071e565b8683101562000765578489015162000761601f89168262000655565b8355505b6001600288020188555050505b505050505050565b620007858162000369565b82525050565b6000602082019050620007a260008301846200077a565b92915050565b6111e880620007b86000396000f3fe608060405234801561001057600080fd5b50600436106100cf5760003560e01c8063715018a61161008c57806395d89b411161006657806395d89b4114610202578063a9059cbb14610220578063dd62ed3e14610250578063f2fde38b14610280576100cf565b8063715018a6146101be5780637b56c2b2146101c85780638da5cb5b146101e4576100cf565b806306fdde03146100d4578063095ea7b3146100f257806318160ddd1461012257806323b872dd14610140578063313ce5671461017057806370a082311461018e575b600080fd5b6100dc61029c565b6040516100e99190610dfa565b60405180910390f35b61010c60048036038101906101079190610eb5565b61032e565b6040516101199190610f10565b60405180910390f35b61012a610351565b6040516101379190610f3a565b60405180910390f35b61015a60048036038101906101559190610f55565b61035b565b6040516101679190610f10565b60405180910390f35b61017861038a565b6040516101859190610fc4565b60405180910390f35b6101a860048036038101906101a39190610fdf565b610393565b6040516101b59190610f3a565b60405180910390f35b6101c66103db565b005b6101e260048036038101906101dd9190610eb5565b6103ef565b005b6101ec610410565b6040516101f9919061101b565b60405180910390f35b61020a61043a565b6040516102179190610dfa565b60405180910390f35b61023a60048036038101906102359190610eb5565b6104cc565b6040516102479190610f10565b60405180910390f35b61026a60048036038101906102659190611036565b6104ef565b6040516102779190610f3a565b60405180910390f35b61029a60048036038101906102959190610fdf565b610576565b005b6060600380546102ab906110a5565b80601f01602080910402602001604051908101604052809291908181526020018280546102d7906110a5565b80156103245780601f106102f957610100808354040283529160200191610324565b820191906000526020600020905b81548152906001019060200180831161030757829003601f168201915b5050505050905090565b6000806103396105fc565b9050610346818585610604565b600191505092915050565b6000600254905090565b6000806103666105fc565b9050610373858285610616565b61037e8585856106ab565b60019150509392505050565b60006012905090565b60008060008373ffffffffffffffffffffffffffffffffffffffff1673ffffffffffffffffffffffffffffffffffffffff168152602001908152602001600020549050919050565b6103e361079f565b6103ed6000610826565b565b61040c82670de0b6b3a7640000836104079190611105565b6108ec565b5050565b6000600560009054906101000a900473ffffffffffffffffffffffffffffffffffffffff16905090565b606060048054610449906110a5565b80601f0160208091040260200160405190810160405280929190818152602001828054610475906110a5565b80156104c25780601f10610497576101008083540402835291602001916104c2565b820191906000526020600020905b8154815290600101906020018083116104a557829003601f168201915b5050505050905090565b6000806104d76105fc565b90506104e48185856106ab565b600191505092915050565b6000600160008473ffffffffffffffffffffffffffffffffffffffff1673ffffffffffffffffffffffffffffffffffffffff16815260200190815260200160002060008373ffffffffffffffffffffffffffffffffffffffff1673ffffffffffffffffffffffffffffffffffffffff16815260200190815260200160002054905092915050565b61057e61079f565b600073ffffffffffffffffffffffffffffffffffffffff168173ffffffffffffffffffffffffffffffffffffffff16036105f05760006040517f1e4fbdf70000000000000000000000000000000000000000000000000000000081526004016105e7919061101b565b60405180910390fd5b6105f981610826565b50565b600033905090565b610611838383600161096e565b505050565b600061062284846104ef565b90507fffffffffffffffffffffffffffffffffffffffffffffffffffffffffffffffff8110156106a55781811015610695578281836040517ffb8f41b200000000000000000000000000000000000000000000000000000000815260040161068c93929190611147565b60405180910390fd5b6106a48484848403600061096e565b5b50505050565b600073ffffffffffffffffffffffffffffffffffffffff168373ffffffffffffffffffffffffffffffffffffffff160361071d5760006040517f96c6fd1e000000000000000000000000000000000000000000000000000000008152600401610714919061101b565b60405180910390fd5b600073ffffffffffffffffffffffffffffffffffffffff168273ffffffffffffffffffffffffffffffffffffffff160361078f5760006040517fec442f05000000000000000000000000000000000000000000000000000000008152600401610786919061101b565b60405180910390fd5b61079a838383610b45565b505050565b6107a76105fc565b73ffffffffffffffffffffffffffffffffffffffff166107c5610410565b73ffffffffffffffffffffffffffffffffffffffff1614610824576107e86105fc565b6040517f118cdaa700000000000000000000000000000000000000000000000000000000815260040161081b919061101b565b60405180910390fd5b565b6000600560009054906101000a900473ffffffffffffffffffffffffffffffffffffffff16905081600560006101000a81548173ffffffffffffffffffffffffffffffffffffffff021916908373ffffffffffffffffffffffffffffffffffffffff1602179055508173ffffffffffffffffffffffffffffffffffffffff168173ffffffffffffffffffffffffffffffffffffffff167f8be0079c531659141344cd1fd0a4f28419497f9722a3daafe3b4186f6b6457e060405160405180910390a35050565b600073ffffffffffffffffffffffffffffffffffffffff168273ffffffffffffffffffffffffffffffffffffffff160361095e5760006040517fec442f05000000000000000000000000000000000000000000000000000000008152600401610955919061101b565b60405180910390fd5b61096a60008383610b45565b5050565b600073ffffffffffffffffffffffffffffffffffffffff168473ffffffffffffffffffffffffffffffffffffffff16036109e05760006040517fe602df050000000000000000000000000000000000000000000000000000000081526004016109d7919061101b565b60405180910390fd5b600073ffffffffffffffffffffffffffffffffffffffff168373ffffffffffffffffffffffffffffffffffffffff1603610a525760006040517f94280d62000000000000000000000000000000000000000000000000000000008152600401610a49919061101b565b60405180910390fd5b81600160008673ffffffffffffffffffffffffffffffffffffffff1673ffffffffffffffffffffffffffffffffffffffff16815260200190815260200160002060008573ffffffffffffffffffffffffffffffffffffffff1673ffffffffffffffffffffffffffffffffffffffff168152602001908152602001600020819055508015610b3f578273ffffffffffffffffffffffffffffffffffffffff168473ffffffffffffffffffffffffffffffffffffffff167f8c5be1e5ebec7d5bd14f71427d1e84f3dd0314c0f7b2291e5b200ac8c7c3b92584604051610b369190610f3a565b60405180910390a35b50505050565b600073ffffffffffffffffffffffffffffffffffffffff168373ffffffffffffffffffffffffffffffffffffffff1603610b97578060026000828254610b8b919061117e565b92505081905550610c6a565b60008060008573ffffffffffffffffffffffffffffffffffffffff1673ffffffffffffffffffffffffffffffffffffffff16815260200190815260200160002054905081811015610c23578381836040517fe450d38c000000000000000000000000000000000000000000000000000000008152600401610c1a93929190611147565b60405180910390fd5b8181036000808673ffffffffffffffffffffffffffffffffffffffff1673ffffffffffffffffffffffffffffffffffffffff16815260200190815260200160002081905550505b600073ffffffffffffffffffffffffffffffffffffffff168273ffffffffffffffffffffffffffffffffffffffff1603610cb35780600260008282540392505081905550610d00565b806000808473ffffffffffffffffffffffffffffffffffffffff1673ffffffffffffffffffffffffffffffffffffffff168152602001908152602001600020600082825401925050819055505b8173ffffffffffffffffffffffffffffffffffffffff168373ffffffffffffffffffffffffffffffffffffffff167fddf252ad1be2c89b69c2b068fc378daa952ba7f163c4a11628f55a4df523b3ef83604051610d5d9190610f3a565b60405180910390a3505050565b600081519050919050565b600082825260208201905092915050565b60005b83811015610da4578082015181840152602081019050610d89565b60008484015250505050565b6000601f19601f8301169050919050565b6000610dcc82610d6a565b610dd68185610d75565b9350610de6818560208601610d86565b610def81610db0565b840191505092915050565b60006020820190508181036000830152610e148184610dc1565b905092915050565b600080fd5b600073ffffffffffffffffffffffffffffffffffffffff82169050919050565b6000610e4c82610e21565b9050919050565b610e5c81610e41565b8114610e6757600080fd5b50565b600081359050610e7981610e53565b92915050565b6000819050919050565b610e9281610e7f565b8114610e9d57600080fd5b50565b600081359050610eaf81610e89565b92915050565b60008060408385031215610ecc57610ecb610e1c565b5b6000610eda85828601610e6a565b9250506020610eeb85828601610ea0565b9150509250929050565b60008115159050919050565b610f0a81610ef5565b82525050565b6000602082019050610f256000830184610f01565b92915050565b610f3481610e7f565b82525050565b6000602082019050610f4f6000830184610f2b565b92915050565b600080600060608486031215610f6e57610f6d610e1c565b5b6000610f7c86828701610e6a565b9350506020610f8d86828701610e6a565b9250506040610f9e86828701610ea0565b9150509250925092565b600060ff82169050919050565b610fbe81610fa8565b82525050565b6000602082019050610fd96000830184610fb5565b92915050565b600060208284031215610ff557610ff4610e1c565b5b600061100384828501610e6a565b91505092915050565b61101581610e41565b82525050565b6000602082019050611030600083018461100c565b92915050565b6000806040838503121561104d5761104c610e1c565b5b600061105b85828601610e6a565b925050602061106c85828601610e6a565b9150509250929050565b7f4e487b7100000000000000000000000000000000000000000000000000000000600052602260045260246000fd5b600060028204905060018216806110bd57607f821691505b6020821081036110d0576110cf611076565b5b50919050565b7f4e487b7100000000000000000000000000000000000000000000000000000000600052601160045260246000fd5b600061111082610e7f565b915061111b83610e7f565b925082820261112981610e7f565b915082820484148315176111405761113f6110d6565b5b5092915050565b600060608201905061115c600083018661100c565b6111696020830185610f2b565b6111766040830184610f2b565b949350505050565b600061118982610e7f565b915061119483610e7f565b92508282019050808211156111ac576111ab6110d6565b5b9291505056fea2646970667358221220ce52f26af92650e8bc94e38587b839d10fb952c4ed73ac7423eb08b256d8850b64736f6c63430008140033",
  "linkReferences": {},
  "deployedLinkReferences": {}
}